:020000040802F0
:10000000841E0020C942050819430508D1020208D0
:1000100019430508194305081943050800000000A5
:100020000000000000000000000000001943050867
:100030001943050800000000130202087D32090878
:10004000194305081943050819430508194305080C
:10005000194305081943050889510908A1510908E0
:10006000B9510908D1510908E951090891FD080859
:1000700021FD0808194305083DFD0808F92609086F
:1000800019430508194305081943050835110908DE
:1000900029120908451209086112090801520908C4
:1000A00019430508194305086D1A0908194305087D
:1000B000194305081943050819430508194305089C
:1000C000194305081943050819430508194305088C
:1000D000DD260908CDFC0808E9FC080805FD08082C
:1000E000355209081943050819430508194305083D
:1000F000891A090819430508194305081943050811
:10010000194305081943050819430508194305084B
:1001100059FD080875FD0808194305081943050825
:10012000194305081943050819430508194305082B
:100130001943050815390908194305081943050825
:10014000194305081943050819430508194305080B
:10015000194305081943050819430508ADFD0808AA
:1001600019430508194305081943050819430508EB
:100170001943050819430508194305080000000044
:10018000194305081943050810B5054C237833B900
:10019000044B13B10448AFF300800123237010BD5A
:1001A000841E0020000000000C270C08084B10B52E
:1001B0001BB108490848AFF300800848036803B939
:1001C00010BD074B002BFBD0BDE81040184700BF07
:1001D00000000000881E00200C270C08841A002054
:1001E00000000000EFF3108072B6704780F31088B3
:1001F0007047464A1368012B04D04FF00103136087
:10020000434A1060434A116043484FF080510160F7
:100210007047EFF3108272B63C48016851B34FF05B
:10022000000101603A48016891B1EFF309811EF0C5
:10023000100F08BF21ED108B21E9F00F4FF00004E3
:100240001EF0100F08BF012441F8044D0068016042
:1002500030490968096808C9B1E8F00F002B18BFD8
:10026000B1EC108B81F309884EF0100E002B18BFF3
:100270002EF0100E82F310884EF0040E70472549C0
:100280000860EFF3148222F0040282F314882049FC
:100290004FF0000008601D494FF0010008601F4842
:1002A0001F49D0F8002041EA020101601A484FF0CE
:1002B000805101601B480068006800BF80F3088817
:1002C00061B662B6BFF34F8FBFF36F8F704700BF49
:1002D000EFF308801EF0040F01D0EFF3098020E94E
:1002E000F00F40F804ED40F804ED1EF0040F02D0CA
:1002F00080F3098801E080F3088800B542F080FCB3
:100300005DF804EB4EF0040E704700001CA20020C4
:1003100024A2002020A2002004ED00E020ED00E057
:100320000000FFFF08ED00E00000000000000000FA
:1003300001F0FF01102A2BDB10F0070F08D010F896
:10034000013B013A8B422DD010F0070F42B3F6D19A
:10035000F0B441EA012141EA014122F007047FF0B3
:1003600000070023F0E80256083C85EA010586EA0A
:10037000010685FA47F5A3FA87F586FA47F6A5FA46
:1003800087F68EB9EED1F0BC01F0FF0102F0070252
:1003900032B110F8013B013A83EA010313B1F8D1FD
:1003A0000020704701387047002D06BF35460338DE
:1003B000073815F0010F07D1013015F4807F02BF17
:1003C000013015F4C03F0130F0BC0138704700BF68
:1003D000844641EA000313F003036DD1403A41D350
:1003E00051F8043B40F8043B51F8043B40F8043B0F
:1003F00051F8043B40F8043B51F8043B40F8043BFF
:1004000051F8043B40F8043B51F8043B40F8043BEE
:1004100051F8043B40F8043B51F8043B40F8043BDE
:1004200051F8043B40F8043B51F8043B40F8043BCE
:1004300051F8043B40F8043B51F8043B40F8043BBE
:1004400051F8043B40F8043B51F8043B40F8043BAE
:1004500051F8043B40F8043B51F8043B40F8043B9E
:10046000403ABDD2303211D351F8043B40F8043B3E
:1004700051F8043B40F8043B51F8043B40F8043B7E
:1004800051F8043B40F8043B103AEDD20C3205D34E
:1004900051F8043B40F8043B043AF9D2043208D046
:1004A000D2071CBF11F8013B00F8013B01D30B88B8
:1004B00003806046704700BF082A13D38B078DD096
:1004C00010F003038AD0C3F10403D21ADB071CBF68
:1004D00011F8013B00F8013B80D331F8023B20F8D2
:1004E000023B7BE7043AD9D3013A11F8013B00F80B
:1004F000013BF9D20B7803704B7843708B78837093
:10050000604670470000000000000000000000008E
:1005100000000000000000000000000000000000DB
:10052000A2EB0300704700BF02780B78012A28BFB6
:100530009A42F5D16DE9044540EA0104CDE902672C
:100540006FF0000C4FEA447212B380EA010414F019
:10055000070F6AD100F0070420F0070004F003053C
:1005600021F007014FEAC505F0E8042314F0040F59
:10057000F1E804670CFA05F462EA040266EA04068C
:100580000AD063EA0403624667EA0407664603E0AA
:10059000F0E80423F1E8046782FA4CF582EA0604E5
:1005A000A4FA8CF46CBB83FA4CF583EA0705A5FA30
:1005B0008CF595B950E9022351E9026782FA4CF5AE
:1005C00082EA0604A4FA8CF483FA4CF583EA070560
:1005D000A5FA8CF52543DBD09CB92DBAB5FA85F484
:1005E00024F0070427FA04F1DDE9026723FA04F393
:1005F00003F0FF0001F0FF01FDE80445A0EB01005E
:10060000704724BAB4FA84F424F0070426FA04F1FB
:10061000DDE9026722FA04F202F0FF0001F0FF01B7
:10062000FDE80445A0EB0100704714F0030F3CD136
:1006300010F0030428D150F8082B51F8083B82FA37
:100640004CF582EA0305A5FA8CF55DB950F8042C47
:1006500051F8043C82FA4CF582EA0305A5FA8CF5C0
:10066000002DE8D02DBAB5FA85F424F0070423FA5A
:1006700004F122FA04F202F0FF0001F0FF01FDE8AC
:100680000445A0EB010070474FEAC40420F00300CA
:1006900050F8082B21F0030151F8083B0CFA04F440
:1006A00062EA040263EA0403C9E710F003041AD003
:1006B000A1EB040120F00300E40750F8042B06D05E
:1006C0000FD28B785FFAA2F4E41A06D12BB1CB7863
:1006D0005FFAB2F4E41A00D11BB920465DF8104B62
:1006E000704701F1040150F8042BCC0721F00301FD
:1006F00051F8043B48D824D222F07F4482FA4CF5CA
:1007000094EA1325A5FA8CF50AD165B951F8043B92
:1007100084EA0204B4EB036F0ED150F8042BEBE72C
:100720004FEA132355E035F07F454DD10878FDE8B9
:100730000445C0F1000070474FEA126203F0FF0366
:1007400047E002EA1C4482FA4CF594EA1345A5FA04
:100750008CF50AD165B951F8043B84EA0204B4EB84
:10076000034F0CD150F8042BEBE74FEA134330E072
:1007700015EA1C4528D10B884FEA124229E04FEABE
:10078000124203EA1C4324E002F0FF0482FA4CF513
:1007900094EA1365A5FA8CF50AD165B951F8043BC2
:1007A00084EA0204B4EB032F09D150F8042BEBE7E1
:1007B0004FEA13630DE015F0FF0F05D10B684FEA08
:1007C000122223F07F4304E04FF00000FDE80445CF
:1007D000704712BA1BBA82FA4CF482EA0304A4FAF4
:1007E0008CF5B5FA85F402FA04F203FA04F34FEA41
:1007F0001260FDE80445A0EB1360704700000000A4
:1008000090F800F06DE9024520F007016FF0000C50
:1008100010F0070491F820F040F049804FF00004F8
:100820006FF00700D1E9002391F840F000F10800D3
:1008300082FA4CF2A4FA8CF283FA4CF3A2FA8CF30B
:100840004BBBD1E9022382FA4CF200F10800A4FA72
:100850008CF283FA4CF3A2FA8CF3E3B9D1E90423C6
:1008600082FA4CF200F10800A4FA8CF283FA4CF3FD
:10087000A2FA8CF37BB9D1E9062301F1200182FAB7
:100880004CF200F10800A4FA8CF283FA4CF3A2FABD
:100890008CF3002BC6D0002A04BF04301A4612BACB
:1008A000B2FA82F2FDE8024500EBD2007047D1E9CE
:1008B000002304F00305C4F100004FEAC50514F05D
:1008C000040F91F840F00CFA05F562EA05021CBF2E
:1008D00063EA050362464FF00004A9E781F0004196
:1008E00002E000BF83F0004330B54FEA41044FEA15
:1008F000430594EA050F08BF90EA020F1FBF54EAB0
:10090000000C55EA020C7FEA645C7FEA655C00F04B
:10091000E2804FEA5454D4EB5555B8BF6D420CDD1C
:100920002C4480EA020281EA030382EA000083EA9F
:10093000010180EA020281EA0303362D88BF30BD3F
:1009400011F0004F4FEA01314FF4801C4CEA113195
:1009500002D0404261EB410113F0004F4FEA0333F4
:100960004CEA133302D0524263EB430394EA050F7F
:1009700000F0A780A4F10104D5F1200E0DDB02FAEE
:100980000EFC22FA05F2801841F1000103FA0EF282
:10099000801843FA05F359410EE0A5F120050EF148
:1009A000200E012A03FA0EFC28BF4CF0020C43FA79
:1009B00005F3C01851EBE37101F0004507D54FF086
:1009C000000EDCF1000C7EEB00006EEB0101B1F5D6
:1009D000801F1BD3B1F5001F0CD349085FEA30001C
:1009E0004FEA3C0C04F101044FEA445212F5800F27
:1009F00080F09A80BCF1004F08BF5FEA500C50F1C4
:100A0000000041EB045141EA050130BD5FEA4C0CA6
:100A1000404141EB010111F4801FA4F10104E9D12F
:100A200091F0000F04BF01460020B1FA81F308BF26
:100A30002033A3F10B03B3F120020CDA0C3208DDF2
:100A400002F1140CC2F10C0201FA0CF021FA02F1CD
:100A50000CE002F11402D8BFC2F1200C01FA02F13D
:100A600020FA0CFCDCBF41EA0C019040E41AA2BF62
:100A700001EB0451294330BD6FEA04041F3C1CDA2A
:100A80000C340EDC04F11404C4F1200220FA04F04A
:100A900001FA02F340EA030021FA04F345EA0301F4
:100AA00030BDC4F10C04C4F1200220FA02F001FAB6
:100AB00004F340EA0300294630BD21FA04F0294638
:100AC00030BD94F0000F83F4801306BF81F48011D1
:100AD0000134013D4EE77FEA645C18BF7FEA655C44
:100AE00029D094EA050F08BF90EA020F05D054EA16
:100AF000000C04BF1946104630BD91EA030F1EBF1B
:100B00000021002030BD5FEA545C05D1400049411E
:100B100028BF41F0004130BD14F580043CBF01F511
:100B2000801130BD01F0004545F0FE4141F47001F7
:100B30004FF0000030BD7FEA645C1ABF19461046D2
:100B40007FEA655C1CBF0B46024650EA013406BFD3
:100B500052EA033591EA030F41F4002130BD00BF92
:100B600090F0000F04BF0021704730B54FF480644F
:100B700004F132044FF000054FF0000150E700BFD0
:100B800090F0000F04BF0021704730B54FF480642F
:100B900004F1320410F0004548BF40424FF000011C
:100BA0003EE700BF42004FEAE2014FEA31014FEA5F
:100BB00002701FBF12F07F4393F07F4F81F06051AE
:100BC000704792F0000F14BF93F07F4F704730B51D
:100BD0004FF4607401F0004521F0004120E700BFB0
:100BE00050EA010208BF704730B54FF000050AE037
:100BF00050EA010208BF704730B511F0004502D538
:100C0000404261EB41014FF4806404F132045FEA39
:100C1000915C3FF4DCAE4FF003025FEADC0C18BFDE
:100C200003325FEADC0C18BF033202EBDC02C2F1D4
:100C3000200300FA03FC20FA02F001FA03FE40EA66
:100C40000E0021FA02F11444C1E600BF70B54FF066
:100C5000FF0C4CF4E06C1CEA11541DBF1CEA135548
:100C600094EA0C0F95EA0C0F00F0DEF82C4481EAB0
:100C7000030621EA4C5123EA4C5350EA013518BFD0
:100C800052EA033541F4801143F4801338D0A0FBBD
:100C900002CE4FF00005E1FB02E506F00042E0FB6A
:100CA00003E54FF00006E1FB03569CF0000F18BF70
:100CB0004EF0010EA4F1FF04B6F5007F64F5407418
:100CC00004D25FEA4E0E6D4146EB060642EAC621AB
:100CD00041EA55514FEAC52040EA5E504FEACE2E18
:100CE000B4F1FD0C88BFBCF5E06F1ED8BEF1004F1B
:100CF00008BF5FEA500E50F1000041EB045170BD97
:100D000006F0004646EA010140EA020081EA0301DA
:100D1000B4EB5C04C2BFD4EB0C0541EA045170BDD6
:100D200041F480114FF0000E013C00F3AB8014F150
:100D3000360FDEBF002001F0004170BDC4F1000499
:100D4000203C35DA0C341BDC04F11404C4F120051A
:100D500000FA05F320FA04F001FA05F240EA020075
:100D600001F0004221F0004110EBD37021FA04F6AB
:100D700042EB06015EEA430E08BF20EAD37070BD65
:100D8000C4F10C04C4F1200500FA04F320FA05F0C4
:100D900001FA04F240EA020001F0004110EBD370C6
:100DA00041F100015EEA430E08BF20EAD37070BD36
:100DB000C4F1200500FA05F24EEA020E20FA04F30F
:100DC00001FA05F243EA020321FA04F001F00041BE
:100DD00021FA04F220EA020000EBD3705EEA430E2F
:100DE00008BF20EAD37070BD94F0000F0FD101F05E
:100DF0000046400041EB010111F4801F08BF013C97
:100E0000F7D041EA060195F0000F18BF704703F0D4
:100E10000046520043EB030313F4801F08BF013D5B
:100E2000F7D043EA0603704794EA0C0F0CEA135517
:100E300018BF95EA0C0F0CD050EA410618BF52EAD1
:100E40004306D1D181EA030101F000414FF00000D7
:100E500070BD50EA410606BF1046194652EA4306E5
:100E600019D094EA0C0F02D150EA013613D195EA59
:100E70000C0F05D152EA03361CBF104619460AD1A1
:100E800081EA030101F0004141F0FE4141F47001AB
:100E90004FF0000070BD41F0FE4141F4780170BD9B
:100EA00070B54FF0FF0C4CF4E06C1CEA11541DBF00
:100EB0001CEA135594EA0C0F95EA0C0F00F0A7F802
:100EC000A4EB050481EA030E52EA03354FEA01312F
:100ED00000F088804FEA03334FF0805545EA131342
:100EE00043EA12634FEA022245EA111545EA10650A
:100EF0004FEA00260EF000419D4208BF964244F1A1
:100F0000FD0404F5407402D25B084FEA3202B61ABF
:100F100065EB03055B084FEA32024FF480104FF493
:100F2000002CB6EB020E75EB030E22BFB61A754607
:100F300040EA0C005B084FEA3202B6EB020E75EB9A
:100F4000030E22BFB61A754640EA5C005B084FEA02
:100F50003202B6EB020E75EB030E22BFB61A7546CF
:100F600040EA9C005B084FEA3202B6EB020E75EBDA
:100F7000030E22BFB61A754640EADC0055EA060E9B
:100F800018D04FEA051545EA16754FEA06164FEADE
:100F9000C30343EA52734FEAC2025FEA1C1CC0D18A
:100FA00011F4801F0BD141EA00014FF000004FF017
:100FB000004CB6E711F4801F04BF01430020B4F1D8
:100FC000FD0C88BFBCF5E06F3FF6AFAEB5EB030C90
:100FD00004BFB6EB020C5FEA500C50F1000041EB8D
:100FE000045170BD0EF0004E4EEA113114EB5C045A
:100FF000C2BFD4EB0C0541EA045170BD41F480112D
:101000004FF0000E013C90E645EA060E8DE60CEA34
:10101000135594EA0C0F08BF95EA0C0F3FF43BAF51
:1010200094EA0C0F0AD150EA01347FF434AF95EA08
:101030000C0F7FF425AF104619462CE795EA0C0FEC
:1010400006D152EA03353FF4FDAE1046194622E7B9
:1010500050EA410618BF52EA43067FF4C5AE50EA93
:1010600041047FF40DAF52EA43057FF4EBAE12E783
:101070004FF0FF3C06E000BF4FF0010C02E000BF64
:101080004FF0010C4DF804CD4FEA410C7FEA6C5C47
:101090004FEA430C18BF7FEA6C5C1BD001B050EAEA
:1010A000410C0CBF52EA430C91EA030F02BF90EAD5
:1010B000020F0020704710F1000F91EA030F58BF94
:1010C000994208BF90422CBFD8176FEAE37040F0F6
:1010D000010070474FEA410C7FEA6C5C02D150EA94
:1010E000013C07D14FEA430C7FEA6C5CD6D152EA4F
:1010F000033CD3D05DF8040B704700BF8446104614
:1011000062468C461946634600E000BF01B5FFF712
:10111000B7FF002848BF10F1000F01BD4DF808EDE2
:10112000FFF7F4FF0CBF012000205DF808FB00BFB3
:101130004DF808EDFFF7EAFF34BF012000205DF80D
:1011400008FB00BF4DF808EDFFF7E0FF94BF01205A
:1011500000205DF808FB00BF4DF808EDFFF7CEFF5B
:1011600094BF012000205DF808FB00BF4DF808ED9A
:10117000FFF7C4FF34BF012000205DF808FB00BF6B
:101180004FEA410C7FEA6C5C02D150EA013C0AD183
:101190004FEA430C7FEA6C5C02D152EA033C02D175
:1011A0004FF0000070474FF0010070474FEA4102D6
:1011B00012F5001215D211D56FF47873B3EB6252A9
:1011C00012D94FEAC12343F0004343EA505311F0D0
:1011D000004F23FA02F018BF404270474FF0000062
:1011E000704750EA013005D111F0004008BF6FF0A0
:1011F000004070474FF00000704700BF4A0011D216
:1012000012F5001211D20DD56FF47873B3EB625260
:101210000ED44FEAC12343F0004343EA505323FA6C
:1012200002F070474FF00000704750EA013002D1E1
:101230004FF0FF3070474FF0000070474FEA410217
:10124000B2F1E04324BFB3F5001CDCF1FE5C0DD924
:1012500001F0004C4FEAC0024CEA5070B2F1004F6E
:1012600040EB830008BF20F00100704711F0804F71
:1012700021D113F13872BCBF01F00040704741F436
:1012800080114FEA5252C2F11802C2F1200C10FA3A
:101290000CF320FA02F018BF40F001004FEAC1231E
:1012A0004FEAD32303FA0CFC40EA0C0023FA02F3C2
:1012B0004FEA4303CCE77FEA625307D150EA013398
:1012C0001EBF4FF0FE4040F44000704701F0004068
:1012D00040F0FE4040F40000704700BF53B94AB9E7
:1012E000002908BF00281CBF4FF0FF314FF0FF302E
:1012F00000F07EB9ADF1080C6DE904CE00F006F8FF
:10130000DDF804E0DDE9022304B070472DE9F04781
:101310008C460E460446089D002B50D18A42174643
:101320006CD9B2FA82FEBEF1000F0BD0CEF12004D0
:1013300020FA04F401FA0EF644EA060C02FA0EF75B
:1013400000FA0EF44FEA1749220CBCFBF9F01FFA21
:1013500087F809FB10C642EA064600FB08F3B342D1
:1013600009D9F61900F1FF3280F02281B34240F230
:101370001F8102383E44F61AA2B2B6FBF9F309FB0C
:10138000136642EA064403FB08F8A04509D9E419AC
:1013900003F1FF3280F00A81A04540F20781023B51
:1013A0003C44C8EB040443EA00400021002D62D015
:1013B00024FA0EF400232C606B60BDE8F0878B42AA
:1013C00007D9002D55D0002185E841000846BDE829
:1013D000F087B3FA83F1002940F09080B34202D342
:1013E000824200F2F880841A66EB03060120B446BC
:1013F000002D40D085E81010BDE8F08712B9012714
:10140000B7FBF2F7B7FA87FEBEF1000F35D1F31B39
:101410004FEA17481FFA87FC0121B3FBF8F0220CB2
:1014200008FB103642EA06460CFB00F3B34207D92C
:10143000F61900F1FF3202D2B34200F2CE8010461C
:10144000F61AA2B2B6FBF8F308FB136642EA0644AA
:101450000CFB03FCA44507D9E41903F1FF3202D2C7
:10146000A44500F2B5801346CCEB040443EA0040E7
:101470009CE729462846BDE8F087CEF1200106FA10
:101480000EF307FA0EF720FA01F94FEA1748CE409B
:1014900049EA0309B6FBF8FA4FEA194408FB1A6651
:1014A0001FFA87FC44EA06430AFB0CF29A4200FA50
:1014B0000EF40AD9DB190AF1FF3180F087809A42D5
:1014C00040F28480AAF1020A3B449B1A1FFA89F970
:1014D000B3FBF8F108FB113349EA034301FB0CF6B7
:1014E0009E4207D9DB1901F1FF326BD29E4269D9C6
:1014F00002393B449B1B41EA0A418EE7C1F1200EB1
:1015000022FA0EF48B40234320FA0EF706FA01F478
:101510004FEA134C26FA0EF63C43B6FBFCF9270CB7
:101520000CFB19661FFA83F847EA064609FB08F721
:10153000B74202FA01F200FA01FA08D9F61809F1E5
:10154000FF3041D2B7423FD9A9F102091E44F61B30
:10155000A0B2B6FBFCF40CFB146640EA064704FBA1
:1015600008F8B84507D9FF1804F1FF3028D2B8456C
:1015700026D9023C1F4444EA0940C8EB0707A0FBF8
:1015800002894F4544464E4614D329D065B3BAEB81
:10159000040367EB060707FA0EFECB40CF404EEA86
:1015A000030385E888000021BDE8F0871346F8E6CC
:1015B0001046E0E6B8EB020469EB03060138E5E704
:1015C0000446D8E7114695E78146C0E78A467CE79E
:1015D000023B3C4448E708460AE702383E442FE70E
:1015E000C245E7D33E46D1E72946BDE8F08700BFB4
:1015F000704700BF80B582B000AF0346FB71402248
:101600000021AA483CF07EFEFB794B2B00F2B4800F
:1016100001A252F823F000BF491702084D17020833
:101620005117020855170208591702085D170208DA
:10163000611702086517020879170208791702086E
:101640007917020879170208791702087917020832
:101650007917020879170208791702087917020822
:101660007917020879170208791702087917020812
:101670007917020879170208791702087917020802
:1016800079170208791702087917020879170208F2
:1016900079170208791702087917020879170208E2
:1016A00079170208791702087917020879170208D2
:1016B00079170208791702087917020879170208C2
:1016C00079170208791702087917020879170208B2
:1016D00079170208791702087917020879170208A2
:1016E0007917020879170208791702087917020892
:1016F0007917020879170208791702087917020882
:101700007917020879170208791702087917020871
:101710007917020879170208791702087917020861
:101720007917020879170208791702087917020851
:101730007917020879170208691702086D1702085D
:101740007117020875170208594BAAE0594BA8E017
:10175000594BA6E0594BA4E0594BA2E0594BA0E0ED
:10176000594B9EE0594B9CE0594B9AE0594B98E0FD
:10177000594B96E0594B94E0FB79072B21D9FB7923
:10178000272B1ED8FB7903F00103002B0CD0FB792B
:10179000093BDA0F13445B1001331A4650494348A2
:1017A0007EF0D6FC414B7CE0FB79083BDA0F13441A
:1017B0005B1001331A464B493C487EF0C9FC3B4B59
:1017C0006FE0FB79272B21D9FB79372B1ED8FB79CA
:1017D00003F00103002B0CD0FB79293BDA0F1344F3
:1017E0005B1001331A46404930487EF0B1FC2F4B64
:1017F00057E0FB79283BDA0F13445B1001331A469C
:101800003A492A487EF0A4FC284B4AE0FB79372B62
:1018100021D9FB793F2B1ED8FB7903F00103002B64
:101820000CD0FB79393BDA0F13445B1001331A46B5
:101830002F491E487EF08CFC1C4B32E0FB79383B74
:10184000DA0F13445B1001331A462A4917487EF019
:101850007FFC164B25E0FB793F2B21D9FB79472BE9
:101860001ED8FB7903F00103002B0CD0FB79413B20
:10187000DA0F13445B1001331A461F490B487EF000
:1018800067FC0A4B0DE0FB79403BDA0F13445B1019
:1018900001331A46194905487EF05AFC034B00E013
:1018A000174B18460837BD4680BD00BFA01E00205C
:1018B000108B0A08248B0A08388B0A084C8B0A08FC
:1018C000608B0A08748B0A08888B0A089C8B0A08AC
:1018D000AC8B0A08C48B0A08E08B0A08FC8B0A0848
:1018E000148C0A08288C0A083C8C0A08548C0A08B4
:1018F0006C8C0A08808C0A08948C0A08AC8C0A0844
:10190000C48C0A0880B485B000AF0346FB71002385
:10191000FB73FB794B2B00F2BC8001A252F823F041
:10192000511A0208571A02085D1A0208631A0208BF
:10193000931A0208691A02086F1A0208751A020837
:10194000931A0208931A0208931A0208931A0208BB
:10195000931A0208931A0208931A0208931A0208AB
:10196000931A0208931A0208931A0208931A02089B
:10197000931A0208931A0208931A0208931A02088B
:10198000931A0208931A0208931A0208931A02087B
:10199000931A0208931A0208931A0208931A02086B
:1019A000931A0208931A0208931A0208931A02085B
:1019B000931A0208931A0208931A0208931A02084B
:1019C000931A0208931A0208931A0208931A02083B
:1019D000931A0208931A0208931A0208931A02082B
:1019E000931A0208931A0208931A0208931A02081B
:1019F000931A0208931A0208931A0208931A02080B
:101A0000931A0208931A0208931A0208931A0208FA
:101A1000931A0208931A0208931A0208931A0208EA
:101A2000931A0208931A0208931A0208931A0208DA
:101A3000931A0208931A0208931A0208931A0208CA
:101A40007B1A0208811A0208871A02088D1A0208F6
:101A50000023FB731EE00123FB731BE00223FB73D7
:101A600018E00323FB7315E00423FB7312E0052346
:101A7000FB730FE00623FB730CE00723FB7309E005
:101A80000823FB7306E00923FB7303E00A23FB73BF
:101A900000E000BFFB7B18461437BD465DF8047BB1
:101AA000704700BF80B485B000AF0346FB710023D0
:101AB000FB73FB79282B79D801A252F823F000BFE1
:101AC000651B02086B1B0208711B0208771B0208CA
:101AD000AD1B0208AD1B02087D1B0208AD1B0208EE
:101AE000AD1B0208891B0208AD1B0208AD1B0208D2
:101AF000AD1B0208AD1B0208AD1B0208AD1B02089E
:101B0000831B0208AD1B0208AD1B0208AD1B0208B7
:101B1000AD1B0208AD1B0208AD1B0208AD1B02087D
:101B2000AD1B0208AD1B0208AD1B0208AD1B02086D
:101B3000AD1B0208AD1B0208AD1B0208AD1B02085D
:101B4000AD1B0208AD1B0208AD1B0208AD1B02084D
:101B50008F1B0208951B02089B1B0208A11B020891
:101B6000A71B02080123FB7321E00023FB731EE087
:101B70000323FB731BE00223FB7318E00423FB73B6
:101B800015E00523FB7312E00623FB730FE0072328
:101B9000FB730CE00823FB7309E00923FB7306E0E9
:101BA0000A23FB7303E00B23FB7300E000BFFB7B06
:101BB00018461437BD465DF8047B704780B485B085
:101BC00000AFB9607A603B600346FB73BB68002BD3
:101BD00005D07B68002B02D03B68002B01D100238D
:101BE00022E0FB7B0B2B01D900231DE0FA7B11497E
:101BF00013465B0013440B441A78BB681A70FA7BD7
:101C00000C4913465B0013440B4401331A787B687C
:101C10001A70FA7B074913465B0013440B440233E6
:101C20001A783B681A70012318461437BD465DF8D0
:101C3000047B70471CB40B0880B483B000AF03462C
:101C4000FB71FB795B09DBB2094A7A3352F8232036
:101C5000FB7903F01F0322FA03F3DBB203F0010365
:101C6000DBB218460C37BD465DF8047B704700BFF9
:101C70008C7D002080B584B000AF0346FB7100204E
:101C80004EF0AEFDF860FB791846FFF70BFF0346F8
:101C9000FB72FB7A0F4A52F82330002B10D0FB7AEC
:101CA0000C4A52F82330FA68D31AB3F5E16F05DD18
:101CB000FB791846FFF7C0FF034606E0002304E067
:101CC000FB791846FFF7B8FF034618461037BD46A4
:101CD00080BD00BFF879002080B483B000AF034618
:101CE000FB71FB795B09DBB218460B4A7A3352F879
:101CF0002330FA7902F01F02012101FA02F21A439D
:101D0000054900F17A0341F8232000BF0C37BD4696
:101D10005DF8047B704700BF8C7D002080B483B0E9
:101D200000AF0346FB71FB795B09DBB218460B4A37
:101D30007A3352F82330FA7902F01F02012101FAB6
:101D400002F2D2431A40054900F17A0341F82320F8
:101D500000BF0C37BD465DF8047B70478C7D0020CA
:101D600080B582B000AF03460A46FB711346BB71D3
:101D7000FB791846FFF760FF0346002B0ED1094B95
:101D80005B6BBA79012101FA02F2D2431340054A92
:101D90005363BB79184600F0E1F900E000BF083753
:101DA000BD4680BDF879002080B582B000AF002329
:101DB000FB710EE0FB790A4A12F81300FB79084A1E
:101DC0005B0013445B781946FFF7CAFFFB790133C8
:101DD000FB71FB790B2BEDD900BF0837BD4680BDE9
:101DE00040B40B0880B586B000AF786000204EF09C
:101DF000F7FC38610023FB750023FB730023BB73E2
:101E000000237B737B68002B28D0174B1B683A6933
:101E1000D31A002B24DD144A3B691360FFF7C4FF7B
:101E20000FE0FB7B3969184600F020F80346002BD1
:101E300004D0B87B797B7B6800229847FB7D013317
:101E4000FB7507F10D0307F10E0207F10F01F87D95
:101E5000FFF7B4FE0346002BE3D102E000BF00E031
:101E600000BF1837BD4680BDE01E002080B483B09F
:101E700000AF03463960FB71134B5A6BFB7922FAB2
:101E800003F303F00103002B0AD1104B1A68FB790E
:101E900022FA03F303F00103002B01D100230CE02D
:101EA000FB79094A52F823303A68D31A40F2077294
:101EB0009342D4BF01230023DBB218460C37BD4642
:101EC0005DF8047B704700BFF87900200C1F0020EC
:101ED00080B584B000AF03463960FB711AF0AEFCE8
:101EE0000346FB81FB89002B01D0FB8901E04FF405
:101EF000E163BB60FB79084A52F823303A68D31A91
:101F00001A46BB689A428CBF01230023DBB21846F5
:101F10001037BD4680BD00BFF879002080B485B081
:101F200000AF0346B9607A60FB73BB68002B20D01A
:101F30001D4B1A6BFB7B22FA03F303F00103002B0A
:101F400008D0FB7B184A52F823307A68D31AB3F5CD
:101F5000E16F22DBFB7B14497A6841F82320124BA6
:101F60001B6BFA7B012101FA02F213430E4A136341
:101F700013E00D4B1A6BFB7B22FA03F303F0010312
:101F8000002B0BD0084B1B6BFA7B012101FA02F2EC
:101F9000D2431340044A136300E000BF1437BD4628
:101FA0005DF8047B704700BFF879002080B586B0EB
:101FB00000AF0346B9607A60FB73FB7B1846FFF7FE
:101FC00071FD0346FB75FB7B272B5AD801A252F803
:101FD00023F000BF75200208752002087520020852
:101FE0007520020883200208832002087520020859
:101FF000832002088320020875200208832002083B
:10200000832002088320020883200208832002081C
:10201000832002087520020883200208832002081A
:1020200083200208832002088320020883200208FC
:1020300083200208832002088320020883200208EC
:1020400083200208832002088320020883200208DC
:1020500083200208832002088320020883200208CC
:1020600083200208752002087520020875200208E6
:1020700075200208FB7D7A68B9681846FFF74EFFA5
:1020800000E000BF00BF1837BD4680BD80B582B0FC
:1020900000AF00204EF0A4FB38600023FB7112E07B
:1020A000FB791846FFF7C8FD0346002B14BF012338
:1020B0000023DBB21946FB793A681846FFF776FF32
:1020C000FB790133FB71FB79282BE9D900BF083775
:1020D000BD4680BD80B582B000AF7860104BDB6A32
:1020E000002B13D0FFF7D2FF0E4B1B78002B0CBF39
:1020F00001230023DBB2184600F016F8094B1B78C9
:10210000002B06D1074B01221A7002E0054B00227A
:102110001A707868FFF766FE00BF0837BD4680BDBD
:1021200038830020E41E002080B483B000AF7860C4
:10213000094B012283F838207B68002B06D0064B20
:102140005A6B054B1B6B1343034A536300BF0C3799
:10215000BD465DF8047B7047F879002080B483B0F9
:1021600000AF0346FB71FB79044A002142F82310BB
:1021700000BF0C37BD465DF8047B7047F87900203E
:1021800080B500AF3022002102483CF0BBF800BF10
:1021900080BD00BFF879002080B487B000AFF86040
:1021A000B9607A6000237B610CE07B699B00BA68B0
:1021B00013447A699200F9680A4412681A607B69CC
:1021C00001337B617A697B689A42EEDB00BF1C3782
:1021D000BD465DF8047B704780B487B000AFF860FF
:1021E000B9607A6000237B6110E07B699B00FA682C
:1021F00013441A687B699B00B9680B441B689A42B8
:1022000001D0002307E07B6901337B617A697B6839
:102210009A42EADB012318461C37BD465DF8047B71
:10222000704700BF80B483B000AF0346FB71FB79F9
:102230005B09DBB21A46094B53F82220FB7903F005
:102240001F0322FA03F3DBB203F00103DBB21846EB
:102250000C37BD465DF8047B704700BFEC1E0020C4
:1022600080B483B000AF0346FB71FB795B09DBB23E
:1022700018461A46094B53F82230FA7902F01F0229
:10228000012101FA02F21343044A42F8203000BF50
:102290000C37BD465DF8047B704700BFEC1E002084
:1022A00080B483B000AF0346FB71FB795B09DBB2FE
:1022B00018461A46094B53F82230FA7902F01F02E9
:1022C000012101FA02F2D2431340044A42F82030BD
:1022D00000BF0C37BD465DF8047B7047EC1E002044
:1022E00080B582B000AF03460A46FB711346BB714E
:1022F000FB79184600F052FA0346002B0DD1BB794A
:102300001846FFF78FFF0346002B06D0BB7918460F
:10231000FFF7C6FF034B0022DA6200BF0837BD4655
:1023200080BD00BF3883002080B500AF062110209B
:10233000FFF7D6FF05210620FFF7D2FF072109206E
:10234000FFF7CEFF01210020FFF7CAFF0021012087
:10235000FFF7C6FF03210220FFF7C2FF022103207F
:10236000FFF7BEFF49212520FFF7BAFF4A212620AB
:10237000FFF7B6FF4B212720FFF7B2FF00BF80BD5C
:1023800080B582B000AF0023FB71102000F006FA88
:102390000346002B13D0012001F09EFC804BB3F8C4
:1023A000C1319BB29B099BB203F00103002B00F0EB
:1023B000EA800123FB710620FFF752FFE3E00620CD
:1023C00000F0ECF90346002B13D0012001F084FC4F
:1023D000734BB3F8C1319BB25B099BB203F00103AD
:1023E000002B00F0D0800123FB710520FFF738FFA0
:1023F000C9E0092000F0D2F90346002B13D00120D8
:1024000001F06AFC664BB3F8C1319BB2DB099BB2A9
:1024100003F00103002B00F0B6800123FB710720BD
:10242000FFF71EFFAFE0002000F0B8F90346002BD5
:1024300013D0012001F050FC594BB3F8C1319BB2CD
:102440005B089BB203F00103002B00F09C8001238A
:10245000FB710120FFF704FF95E0012000F09EF9D9
:102460000346002B11D0012001F036FC4C4BB3F891
:10247000C1319BB203F00103002B00F084800123E3
:10248000FB710020FFF7ECFE7DE0022000F086F9F2
:102490000346002B12D0012001F01EFC404BB3F884
:1024A000C1319BB2DB089BB203F00103002B6AD061
:1024B0000123FB710320FFF7D3FE64E0032000F04B
:1024C0006DF90346002B12D0012001F005FC344BBE
:1024D000B3F8C1319BB29B089BB203F00103002B00
:1024E00051D00123FB710220FFF7BAFE4BE02520FB
:1024F00000F054F90346002B0DD0012001F0ECFB55
:10250000284B93F8E231FF2B3DD00123FB7149208A
:10251000FFF7A6FE37E0262000F040F90346002B27
:102520000DD0012001F0D8FB1E4B93F8E431FF2BB6
:1025300029D00123FB714A20FFF792FE23E02720D8
:1025400000F02CF90346002B0DD0012001F0C4FB54
:10255000144B93F8E631FF2B15D00123FB714B2070
:10256000FFF77EFE0FE00F4B9B6A012B05D1012088
:1025700001F0B2FB0123FB7105E0002001F0ACFB90
:10258000002001F0C1FBFB79002B14BF01230023C5
:10259000DBB2184601F0B8FB00BF0837BD4680BD6E
:1025A000807F00203883002080B500AF2C4B93F84B
:1025B000E231FF2B12D02A4BB3F878321A46284B5F
:1025C00093F8E23142FA03F303F00103002B05D143
:1025D0000E221221234800F0EFF804E00E2212210F
:1025E000204800F0FBF81E4B93F8E431FF2B12D08B
:1025F0001B4BB3F878321A46194B93F8E43142FA80
:1026000003F303F00103002B05D10F22122116481A
:1026100000F0D2F804E00F221221134800F0DEF897
:102620000F4B93F8E631FF2B12D00D4BB3F87832F5
:102630001A460B4B93F8E63142FA03F303F0010319
:10264000002B05D110221321084800F0B5F804E052
:1026500010221321054800F0C1F800BF80BD00BF63
:1026600038830020747D00207C7D0020847D002044
:1026700080B500AFFFF758FEFFF782FE00BF80BDB8
:1026800080B500AF032203490348FFF785FD00BF73
:1026900080BD00BFF81E0020EC1E002080B500AFFA
:1026A000032206490648FFF797FD0346002B0CBF9F
:1026B00001230023DBB2184680BD00BFF81E0020B6
:1026C000EC1E002080B582B000AF7860074A7B68BE
:1026D000D3627B68012B04D1054B00221A60FFF7FF
:1026E000CFFF00BF0837BD4680BD00BF3883002044
:1026F000E81E002080B500AF0248FFF7EBFC00BFEA
:1027000080BD00BF3127020880B582B000AF03460C
:10271000FB710B46BB7113467B717A79B979FB79F2
:10272000184601F06FF900BF0837BD4680BD00BFF5
:1027300080B582B000AF0346FB710B46BB711346F8
:102740007B717A79B979FB79184601F0F3F900BF0A
:102750000837BD4680BD00BF80B582B000AF0346DC
:10276000FB710B46BB7113467B717A79B979FB79A2
:10277000184601F00BFA00BF0837BD4680BD00BF08
:1027800080B582B000AF0346FB71FB791846FFF7B6
:1027900053FA034618460837BD4680BD80B582B05F
:1027A00000AF0346FB71FB791846FFF763FA034657
:1027B00018460837BD4680BD80B582B000AF78604E
:1027C0000B46FB701346BB70BA78FB7819467868E5
:1027D00001F02CFA00BF0837BD4680BD80B582B03D
:1027E00000AF78600B46FB701346BB70BA78FB787D
:1027F0001946786801F034FA00BF0837BD4680BD3D
:1028000080B500AF02F020FD00BF80BD80B588B06C
:1028100002AF0346BA60FB730B46BB73FB7B112B05
:1028200000F2F78001A252F823F000BF75280208D9
:10283000132A0208132A0208132A020897280208FA
:10284000B92802085D2902080B290208AF290208ED
:10285000012A0208072A0208132A0208132A02087A
:10286000132A0208132A0208132A0208132A02084C
:102870000D2A02080423FB75BB7B0433DBB25B002B
:10288000DAB2AD2300931346012240F2D771B86843
:1028900000F0C0FDBDE00523FB75BB7B5B00DBB238
:1028A0000933DAB2AD2300931346012240F2D77107
:1028B000B86800F0AFFDACE00023FB75574BD3EDDB
:1028C000727AB2EE047A67EE877AFCEEE77AC7EDA9
:1028D000017ABB8899B2524BD3F8AB31F2EE047A4D
:1028E00007EE103A67EE277AFCEEE77AC7ED017A39
:1028F000BB889BB2AC22019200930B46012240F2AE
:10290000D171B86800F0ACFD83E00223FB75434B46
:10291000D3ED737AB2EE047A67EE877AFCEEE77A4B
:10292000C7ED017ABB8899B23D4BD3F8B331F2EED3
:10293000047A07EE103A67EE277AFCEEE77AC7EDE5
:10294000017ABB889BB2AC22019200930B46032212
:1029500040F2D371B86800F083FD5AE00123FB75A3
:102960002E4BD3ED727AB2EE047A67EE877AFCEEE4
:10297000E77AC7ED017ABB8899B2294BD3F8A73122
:10298000F2EE047A07EE103A67EE277AFCEEE77A69
:10299000C7ED017ABB889BB2AB22019200930B4634
:1029A000002240F2D271B86800F05AFD31E00323F2
:1029B000FB751A4BD3ED737AB2EE047A67EE877A21
:1029C000FCEEE77AC7ED017ABB8899B2144BD3F8D5
:1029D000AF31F2EE047A07EE103A67EE277AFCEE9A
:1029E000E77AC7ED017ABB889BB2AC2201920093D3
:1029F0000B46022240F2D471B86800F031FD08E0C5
:102A00001F23FB7505E02023FB7502E02823FB75DF
:102A100000BFFB7D18461837BD4680BD8C7D002069
:102A2000807F002080B586B002AF03463A60FB711C
:102A30000B46BB71FB79032B25D0042B12D0002B46
:102A400036D10723FB73BB791433DBB25B00DAB2F8
:102A5000AD2300931346022240F2D771386800F08C
:102A6000D9FC25E00823FB73BB795B00DBB229337B
:102A7000DAB2AD2300931346022240F2D7713868D0
:102A800000F0C8FC14E00623FB730C4BD3F8DC31D8
:102A900099B20B4BB3F8BB319BB2AB2201920093BE
:102AA0000B46052240F2D571386800F0D9FC00BF12
:102AB000FB7B18461037BD4680BD00BF8C7D0020D3
:102AC000807F002080B586B002AF03463A60FB717C
:102AD0000B46BB71FB79042B43D801A252F823F0BB
:102AE000F52A0208632B0208632B0208392B02081F
:102AF000172B02080A23FB73BB791C33DBB25B0084
:102B0000DAB2AD2300931346052240F2D77138683C
:102B100000F080FC25E00B23FB73BB795B00DBB28C
:102B20003933DAB2AD2300931346052240F2D77150
:102B3000386800F06FFC14E00923FB730B4BD3F8EB
:102B4000D83199B20A4BB3F8BF319BB2AB22019294
:102B500000930B4607224FF4FB61386800F080FCBD
:102B600000BFFB7B18461037BD4680BD8C7D002022
:102B7000807F002080B586B002AF03463A60FB71CB
:102B80000B46BB71FB79032B25D0042B12D0002BF5
:102B900036D11123FB73BB792033DBB25B00DAB291
:102BA000AD2300931346032240F2D771386800F03A
:102BB00031FC25E01223FB73BB795B00DBB24133B0
:102BC000DAB2AD2300931346032240F2D77138687E
:102BD00000F020FC14E01023FB730C4BD3F8E03121
:102BE00099B20B4BB3F8BD319BB2AB22019200936B
:102BF0000B46062240F2D671386800F031FC00BF67
:102C0000FB7B18461037BD4680BD00BF8C7D002081
:102C1000807F002080B584B000AF03463A60FB712E
:102C20000B46BB71FB79122B1FD0132B38D0112B05
:102C300045D1BB79022B00D041E0AA23482240F2C3
:102C4000D971386800F036FC386800F097F903460F
:102C5000002B03D01C4B01221A7002E01A4B0022F9
:102C60001A702423FB7300BF29E0BB790E2B02D01E
:102C70000F2B0AD023E0AA23492240F2DE713868E4
:102C800000F018FC2523FB7309E0AA234A2240F236
:102C9000DF71386800F00EFC2623FB7300BF0EE0E6
:102CA000BB79102B00D009E0AA234B224FF4FC6122
:102CB000386800F0FFFB2723FB7300BF00BFFB7BDE
:102CC00018461037BD4680BD101F002080B485B067
:102CD00000AF03460A46FB711346BB71FB79092B13
:102CE00053D0092B0CDC032B1BD0032B03DC012B53
:102CF000C0F2AB8022E0062B2DD0072B38D0A4E009
:102D00000C2B69D00C2B04DC0A2B4BD00B2B56D090
:102D10009BE00E2B7AD00E2B6BDBFF2B00F0838019
:102D200093E0BB79002B02D0042B03D08DE01D2350
:102D3000FB7302E01E23FB7300BF86E0BB79002B10
:102D400002D0042B03D080E00423FB7302E00523B0
:102D5000FB7300BF79E0BB79002B02D0042B03D0BA
:102D600073E00A23FB7302E00B23FB7300BF6CE0EC
:102D7000BB79002B02D0042B03D066E00C23FB733D
:102D800002E00D23FB7300BF5FE0BB79002B02D094
:102D9000042B03D059E00E23FB7302E00F23FB73D7
:102DA00000BF52E0BB79002B02D0042B03D04CE0D3
:102DB0001323FB7302E01423FB7300BF45E0BB79D0
:102DC000002B02D0042B03D03FE01523FB7302E05D
:102DD0001623FB7300BF38E0BB79002B02D0042B15
:102DE00003D032E01723FB7302E01823FB7300BF0C
:102DF0002BE0BB79002B02D0042B03D025E0192354
:102E0000FB7302E01A23FB7300BF1EE0BB79002BAB
:102E100002D0042B03D018E01B23FB7302E01C2319
:102E2000FB7300BF11E0BB790C2B07D00D2B08D032
:102E30000B2B00D008E02123FB7305E02223FB735A
:102E400002E02323FB7300BF00BFFB7B184614374F
:102E5000BD465DF8047B704780B584B000AF3B6031
:102E60000346FB710B46BB7113467B71FB79072B45
:102E70000DDC062B20DA032B04DC012B1CDA002BE3
:102E800011D046E0042B20D0052B27D041E00E2B9B
:102E900002DC092B10DA2AE0112B3ADB132B2FDD91
:102EA000FF2B09D035E07979BB793A681846FFF7EE
:102EB000ADFC0346FB732DE0BA79FB791146184649
:102EC000FFF704FF0346FB7324E07979BB793A6886
:102ED0001846FFF7A7FD0346FB731BE07979BB7922
:102EE0003A681846FFF7EEFD0346FB7312E0797966
:102EF000BB793A681846FFF73DFE0346FB7309E0CD
:102F0000B979FB793A681846FFF784FE0346FB73EC
:102F100000E000BFFB7B18461037BD4680BD00BFF8
:102F200080B483B000AF78600B46FB707B68002BE9
:102F300006D07B6808221A807B68FA781A7200E053
:102F400000BF0C37BD465DF8047B704780B483B08A
:102F500000AF78600B467B8013467B707B68002B4C
:102F600006D07B687A885A807B687A785A7200E04B
:102F700000BF0C37BD465DF8047B704780B483B05A
:102F800000AF78607B68002B01D1002306E07B68EE
:102F90005B79012B0CBF01230023DBB218460C37F1
:102FA000BD465DF8047B7047F0B593B004AF0346AF
:102FB0003960FB7100204DF013FC0346FB60FB7988
:102FC000482B0CBF01230023DBB27B63F968FB793C
:102FD0007A6B184600F02AF90346002B2FD0FA68C6
:102FE000FB791146184600F045F907F1100207F188
:102FF0000C03114618464DF06BFA29483CF08AF84C
:10300000FB791846FEF7F6FA06467B6A03F26C7403
:103010003B6A5D1CFB69BA69796938690390029162
:10302000019200932B46224631461E483CF072F82E
:103030001D483CF06FF8FB7918462CF003FBFB7938
:10304000184600F087FAF968FB797A6B184600F0A9
:10305000B7FA0346002B1FD0FB79184600F0BAF8E8
:103060000346002B02D07B6B002B06D0FA68FB795D
:103070001946386800F0E0FA0EE0F968FB797A6BDF
:10308000184600F0BDFA0346002B05D0FA68FB791C
:103090001946386800F0D0FA00BF3C37BD46F0BD95
:1030A000D48C0A08EC8C0A08248D0A0880B586B0F6
:1030B00000AF03463960FB7100204DF091FB786151
:1030C000FB79482B0CBF01230023DBB23B61FB796A
:1030D0001846FEF717FC0346FB73FB7B184600F00F
:1030E0005FF80346002B03D0FB79184600F0CCFABA
:1030F000FB79184600F0E0FA0346002B18D0FB7964
:103100003A697969184600F0F3FA0346002B0FD0AC
:10311000FB79184600F074F80346002B02D03B6997
:10312000002B05D0FB797A691946386800F000FB5E
:1031300000BF1837BD4680BD80B582B000AF786053
:103140000B46FB707868FFF719FF0346002B05D08C
:10315000FB7879681846FFF727FF04E0FB78796869
:103160001846FFF7A3FF00BF0837BD4680BD00BF6C
:1031700080B584B000AFF8600B467A60FB727B6864
:10318000002B14BF01230023DBB21A46FB7A194639
:10319000F8681CF0C1FE034618461037BD4680BDD6
:1031A00080B483B000AF0346FB71094B1A68FB790A
:1031B00022FA03F303F00103002B14BF01230023C1
:1031C000DBB218460C37BD465DF8047B704700BF84
:1031D000081F002080B483B000AF0346FB71FB7969
:1031E000064AD35C002B14BF01230023DBB2184630
:1031F0000C37BD465DF8047B704700BFB07B0020F4
:1032000080B483B000AF0346FB71FB79064AD35C00
:10321000002B14BF01230023DBB218460C37BD4638
:103220005DF8047B704700BF347A002080B485B01D
:1032300000AF0346B9607A60FB73FA7B0C49134612
:103240005B0013449B000B4403F573731B68BA685F
:10325000D31AB3F5E16F02DC7B68002B01D00123A8
:1032600000E0002318461437BD465DF8047B704724
:103270003883002080B582B000AF03463960FB710F
:10328000FA791E4913465B0013440B4403F5397366
:1032900000221A70FA79194913465B0013449B0007
:1032A0000B4403F2CA33FA791A70FA7913491346B8
:1032B0005B0013449B000B4403F573733A681A6078
:1032C000FA790E4913465B0013440B4403F2E623DC
:1032D0001978FA79094813465B001344034403F252
:1032E000E5231B78994204D0FB793968184600F031
:1032F0007FFA00BF0837BD4680BD00BF388300207D
:1033000080B483B000AF03460A46FB711346BB711D
:10331000FA79084913465B0013449B000B4403F2FF
:10332000C933BA791A7000BF0C37BD465DF8047B0B
:10333000704700BF3883002090B482B000AF0446CD
:10334000084611461A462346FB710346BB800B46CE
:103350007B801346BB71FA79124913465B00134414
:103360009B000B4403F57473BA881A80FA790D49EF
:1033700013465B0013449B000B4403F2D2337A885C
:103380001A80FA79074913465B0013449B000B44EB
:1033900003F2C933BA791A7000BF0837BD4690BC32
:1033A000704700BF3883002080B582B000AF7860DE
:1033B0000B46FB701346BB707868FFF7DFFD0346D2
:1033C000002B05D0BA78FB7811461846FFF798FF16
:1033D00000BF0837BD4680BD80B584B000AFF8603F
:1033E000084611461A460346FB720B463B811346BC
:1033F000FB80F868FFF7C2FD0346002B05D03B7E3B
:10340000FA883989F87AFFF797FF00BF1037BD4671
:1034100080BD00BF80B582B000AF7860084611461D
:103420001A4603467B800B467B7013463B707A78C6
:103430007B8819467868FFF789FD3A7C3B78194606
:103440007868FFF7B1FF3B7819467868FFF774FE9C
:10345000786800F051F800BF0837BD4680BD00BF56
:1034600080B586B002AFF860084611461A4603469A
:103470007B810B467B721346FB807B8900221946B9
:10348000F868FFF763FD388BFA88797A3B7F009301
:103490000346F868FFF7A0FF7B7A1946F868FFF744
:1034A0004BFE7B7A1946F86800F038F800BF1037F9
:1034B000BD4680BD80B582B000AF78600846114639
:1034C0001A4603467B800B467B7013463B707B8815
:1034D000002219467868FFF739FD3A787B7819465B
:1034E0007868FFF761FF7B7819467868FFF724FE5C
:1034F00000BF0837BD4680BD80B483B000AF7860A0
:103500007B68002B03D07B6800221A7100E000BFAB
:103510000C37BD465DF8047B704700BF80B582B0B4
:1035200000AF78600B46FB70094BB3F8C1319BB21A
:103530001A46FB7842FA03F303F00103002B02D191
:103540007868FFF7D9FF00BF0837BD4680BD00BFD0
:10355000807F002080B483B000AF0346FB71FA790E
:10356000164913465B0013440B4403F539731B786B
:10357000002B1DD1FA79114913465B0013440B440B
:1035800003F5397301221A70FA790C4913465B006E
:1035900013440B4403F2E5231B780133D8B20749E7
:1035A00013465B0013440B4403F2E52302461A70F2
:1035B00000BF0C37BD465DF8047B704738830020A0
:1035C00080B586B000AF0346B9607A60FB73FB7BC1
:1035D000184600F0F9F87861BA687B69D31A0A2BAB
:1035E00006DCBA687B699A4202D07B68002B01D066
:1035F000012300E0002318461837BD4680BD00BFF8
:1036000080B584B000AF0346B9607A60FB73FB7B82
:10361000184600F0D9F80246BB689B1AB3F5E16F73
:1036200002DC7B68002B01D0012300E00023184658
:103630001037BD4680BD00BF80B584B000AFF860D4
:103640000B467A60FB72FB68002B16D0FB680122E8
:103650001A71FB68FA7A9A71FA7A0A4913465B0082
:1036600013440B4403F2E5231A78FB68DA71FB7A02
:103670007968184600F0BCF800E000BF1037BD467E
:1036800080BD00BF3883002080B483B000AF034604
:10369000FB71FA79074913465B0013440B4403F5A9
:1036A000397301221A7000BF0C37BD465DF8047BE8
:1036B000704700BF3883002080B483B000AF03465A
:1036C000FB71FA79094913465B0013440B4403F577
:1036D00039731B78002B14BF01230023DBB218467B
:1036E0000C37BD465DF8047B704700BF388300206F
:1036F00080B586B000AF0346B9607A60FB73FB7B90
:10370000184600F08BF87861BA687B69D31A0A2BE7
:1037100006DCBA687B699A4202D07B68002B01D034
:10372000012300E0002318461837BD4680BD00BFC6
:1037300080B584B000AFF8600B467A60FB72FB681E
:10374000002B29D0FB7A7968184600F07BF8FB68DB
:1037500001221A71FA7A124913465B0013440B4492
:1037600003F5397300221A70FA7AF97A0C480B467D
:103770005B000B44034403F2E52318780849134621
:103780005B0013440B4403F2E62302461A70FB7AF3
:10379000184600F007F800E000BF1037BD4680BDB6
:1037A0003883002080B483B000AF0346FB71FB79FF
:1037B000044A0021D15400BF0C37BD465DF8047B9C
:1037C000704700BFB07B002080B483B000AF0346D9
:1037D000FB71FB79054A12339B0013445B68184662
:1037E0000C37BD465DF8047B704700BFB07B0020FE
:1037F00080B483B000AF03463960FB71FB79064AA1
:1038000012339B0013443A685A6000BF0C37BD4620
:103810005DF8047B704700BFB07B002080B483B0AC
:1038200000AF0346FB71FB79054A12339B0013443A
:103830005B6818460C37BD465DF8047B704700BFD7
:10384000347A002080B483B000AF03463960FB7146
:10385000FB79064A12339B0013443A685A6000BF52
:103860000C37BD465DF8047B704700BF347A0020FA
:1038700080B582B000AF78600B46FB700A4B1A68C7
:10388000FB7822FA03F303F00103002B07D1FB7846
:10389000012219467868FFF76BFC012300E0002342
:1038A00018460837BD4680BD041F002080B584B08F
:1038B00000AF78600B46FB701346BB70BB781846B0
:1038C000FEF7F0F80346FB73FB7819467868FFF7BC
:1038D00027FBFB7B19467868FFF7CAFF03461846AB
:1038E0001037BD4680BD00BF80B582B000AF7860A4
:1038F0000B46FB700A4B1A68FB7822FA03F303F0BD
:103900000103002B07D1FB78002219467868FFF7E6
:103910002FFC012300E0002318460837BD4680BD78
:10392000081F002080B584B000AF78600B46FB70A4
:103930001346BB70BB781846FEF7B4F80346FB731A
:10394000FB7819467868FFF7EBFAFB7B1946786835
:10395000FFF7CAFF034618461037BD4680BD00BFBB
:1039600080B582B000AF78600B46FB701346BB7029
:103970000A4B1A68BB7822FA03F303F00103002B09
:1039800007D0FB78002219467868FFF7F1FB012386
:1039900000E0002318460837BD4680BD0C1F0020FC
:1039A00080B584B000AF78600B46FB701346BB70E7
:1039B000BB781846FEF776F80346FB73FB7819468A
:1039C0007868FFF7ADFAFA7BFB7B19467868FFF75A
:1039D000C7FF034618461037BD4680BD80B582B08C
:1039E00000AF18F01FFF0346FB80FB88002B01D0BF
:1039F000FB8802E002F0A4FC034618460837BD46E7
:103A000080BD00BF2DE9F04192B004AF0346FB71C9
:103A10000B46BB7113467B7100204CF0E1FE7863CE
:103A2000002387F83330FFF7D9FF0346002B03D17B
:103A30003C483BF06FFB70E007F1080324220021B3
:103A400018463AF05FFC01237B7307F108037A798B
:103A5000B979F879FFF700FA034687F8323097F81A
:103A600032301846FEF71EF8034687F8333097F8D1
:103A700032301846FEF7E0F80346002B14BF01234E
:103A80000023DBB2FB62FD79BE7997F8328097F8AC
:103A9000334097F83330796B1846FEF719FA3860DF
:103AA000FFF79CFF03461A46FB6A039302923B68AA
:103AB000019300944346324629461B483BF02AFBBB
:103AC00097F83330796B1846FEF702FA0346002B5D
:103AD00023D0FFF783FF0346002B0DD097F8323039
:103AE0001846FEF7F9F897F83210104BD3F8E83182
:103AF0001A460F483BF00EFB3B7B002B07D097F894
:103B00003220797907F108031846FFF7CFFEFB6AE8
:103B1000012B02D000202BF08BF93837BD46BDE8D1
:103B2000F08100BF2C8D0A08448D0A088C7D00208E
:103B3000908D0A0880B58CB000AF0346FB710B4630
:103B4000BB7113467B7107F108032422002118463C
:103B50003AF0D8FB00237B7307F108037A79B9792F
:103B6000F879FFF779F9034687F82F303B7B002B74
:103B700007D097F82F20797907F108031846FFF747
:103B8000D1FE00BF3037BD4680BD00BF80B58EB0CE
:103B900000AF0346FB710B46BB7113467B710023DC
:103BA00087F8373007F10C032422002118463AF039
:103BB000A9FB00237B7407F10C037A79B979F879B2
:103BC000FFF74AF9034687F8363097F8363018463B
:103BD000FDF768FF034687F8373097F83630184608
:103BE000FEF72AF80346002B14BF01230023DBB2A3
:103BF0003B6397F836301846FEF790F83B7C002B75
:103C00000CD097F83620797907F10C031846FFF7A6
:103C1000C7FE97F837301846FEF7A0FA00202BF0C1
:103C200007F900BF3837BD4680BD00BF80B582B000
:103C300000AF78600B46FB701346BB707B68002BAF
:103C400009D07B6801221A71B978FB7800221846E6
:103C5000FFF7D8FE00E000BF0837BD4680BD00BFBB
:103C600080B586B000AF78600B46FB701346BB7022
:103C700000204CF0B5FD78617B68002B27D07B6875
:103C80001B79012B05D17B6800221A717B687A6948
:103C90001A6018F0DFFD03467B827B8A002B01D07F
:103CA0007B8A00E0B423FB607B681B687A69D31AC7
:103CB0001A46FB689A420BD97B681B79002B07D107
:103CC000B978FB7800221846FFF760FF00E000BFDC
:103CD0001837BD4680BD00BF80B582B000AF7860A8
:103CE000786828F0ADFB00BF0837BD4680BD00BF37
:103CF00080B582B000AF7860786828F0ADFB00BF77
:103D00000837BD4680BD00BF80B582B000AF786087
:103D1000786828F0B3FB00BF0837BD4680BD00BF00
:103D200080B582B000AF786039603868FFF7ECFF8B
:103D30007868FFF7DDFF00BF0837BD4680BD00BFD4
:103D400080B582B000AF78600020FFF7D1FF7868BF
:103D5000FFF7DAFF00BF0837BD4680BD80B582B0EF
:103D600000AF0C23FB7101F045FC03465D2B02D133
:103D70000C23FB7111E001F03DFC03465E2B02D1E8
:103D80000D23FB7109E001F035FC03465F2B02D1E6
:103D90000E23FB7101E00C23FB71FB7918460837F9
:103DA000BD4680BD80B483B000AF87ED010AD7ED7A
:103DB000017AB9EE047AF4EEC77AF1EE10FA0ADB72
:103DC000D7ED017AB1EE047AF4EEC77AF1EE10FA8B
:103DD00001D8012300E0002318460C37BD465DF8EA
:103DE000047B704780B483B000AF87ED010AD7ED44
:103DF000017ABAEE047AF4EEC77AF1EE10FA0ADB31
:103E0000D7ED017AB2EE047AF4EEC77AF1EE10FA49
:103E100001D8012300E0002318460C37BD465DF8A9
:103E2000047B704780B582B000AF87ED010AC7ED13
:103E3000000A97ED010AFFF7B5FF0346002B01D1F9
:103E4000002309E097ED000AFFF7CCFF0346002BA3
:103E500001D1002300E0012318460837BD4680BD8C
:103E600080B582B000AF78607B68002B02D16FF024
:103E7000090305E09822044978683AF09FFA002384
:103E800018460837BD4680BD6980002080B582B0E5
:103E900000AF78607B68002B02D16FF0090305E06A
:103EA0009822796803483AF089FA002318460837BF
:103EB000BD4680BD6980002080B582B000AF87ED2F
:103EC000010AC7ED000AD7ED000A97ED010AFFF7D6
:103ED000A9FF0346002B02D16FF009030AE0074B4C
:103EE00003F279137A681A60044B03F27D133A687F
:103EF0001A60002318460837BD4680BD807F002029
:103F000080B483B000AF786039607B68002B02D04A
:103F10003B68002B02D16FF009030AE0084BD3F88D
:103F200079317A681360064BD3F87D313A681360B3
:103F3000002318460C37BD465DF8047B704700BF70
:103F4000807F002080B584B000AF034687ED020A71
:103F5000C7ED010AFB73FB7B0F2B02D96FF009033E
:103F60001CE0D7ED010A97ED020AFFF75BFF03465D
:103F7000002B02D16FF0090310E0FB7B094A3A33B2
:103F80009B0013440133BA681A60FB7B054A4C332B
:103F90009B00134401337A681A60002318461037D7
:103FA000BD4680BD807F002080B485B000AF034651
:103FB000B9607A60FB73BB68002B02D07B68002B72
:103FC00002D16FF0090318E0FB7B0F2B02D96FF0D1
:103FD000090312E0FB7B0C4A3A339B001344D3F8ED
:103FE0000130BA681360FB7B074A4C339B001344D3
:103FF000D3F801307A681360002318461437BD46A1
:104000005DF8047B704700BF807F002080B483B0E0
:1040100000AF87ED010A054A7B681360002318464C
:104020000C37BD465DF8047B704700BF807F0020E1
:1040300080B400AF044B1B6807EE903AB0EE670AFD
:10404000BD465DF8047B7047807F002080B483B05C
:1040500000AF87ED010A054A7B68536000231846CC
:104060000C37BD465DF8047B704700BF807F0020A1
:1040700080B483B000AF87ED010A054A7B68936086
:10408000002318460C37BD465DF8047B704700BF1F
:10409000807F002080B400AF044B5B6807EE903A4D
:1040A000B0EE670ABD465DF8047B7047807F002054
:1040B00080B400AF044B9B6807EE903AB0EE670AFD
:1040C000BD465DF8047B7047807F002080B483B0DC
:1040D00000AF7860044A7B685361002318460C37B0
:1040E000BD465DF8047B7047807F002080B483B0BC
:1040F00000AF03463960FB71FB791D2B01D91D23ED
:10410000FB713B68012B0BD1FB790E4A1A2101FB95
:1041100003F313441033D3F806300B4A536109E01C
:10412000FB790A4A2C2101FB03F3134410335B682B
:10413000054A5361044B5B6918460C37BD465DF870
:10414000047B7047B48F0020807F0020C092002045
:1041500098B500AF144B93F86732FF2B04D1124B84
:10416000002283F8682208E00F4B93F867321D2B7A
:1041700003D90D4B1D2283F867220B4B93F868324D
:104180001D2B03D9084B1D2283F86822064B93F898
:10419000684201F05BFA034619462046FFF7A6FF86
:1041A0000346184698BD00BF3883002080B400AF96
:1041B000034B5B691846BD465DF8047B704700BF42
:1041C000807F002080B584B000AF03460A46FB71B3
:1041D0001346BB710023FB600023BB60EDE0FB795D
:1041E000022B23D17D49BA6813465B0013440B446C
:1041F0000B331B78002B00F0DD807849BA6813463A
:104200005B0013440B440B331B7818467349BA68A0
:1042100013465B0013440B4408339B889BB203FB9B
:1042200000F31A46FB681344FB60C3E0FB79032BE1
:1042300023D16A49BA6813465B0013440B44253303
:104240001B78002B00F0B6806449BA6813465B0007
:1042500013440B4425331B7818466049BA6813464B
:104260005B0013440B4422339B889BB203FB00F397
:104270001A46FB681344FB609CE001F0DFF903463B
:10428000002B4CD0FB79002B23D15549BA6813463B
:104290005B0013440B440B331B78002B00F08A8027
:1042A0004F49BA6813465B0013440B440B331B7829
:1042B00018464B49BA6813465B0013440B44083355
:1042C0009B889BB203FB00F31A46FB681344FB6018
:1042D00070E0FB79012B6DD14149BA6813465B0050
:1042E00013440B4425331B78002B63D03C49BA6838
:1042F00013465B0013440B4425331B78184638499A
:10430000BA6813465B0013440B4422339B889BB26C
:1043100003FB00F31A46FB681344FB604AE0FB7999
:10432000002B22D12D49BA6813465B0013440B447D
:104330000B331B78002B3DD02849BA6813465B002D
:1043400013440B440B331B7818462449BA681346B0
:104350005B0013440B4408339B889BB203FB00F3C0
:104360001A46FB681344FB6024E0FB79012B21D142
:104370001A49BA6813465B0013440B4425331B7873
:10438000002B17D01549BA6813465B0013440B4441
:1043900025331B7818461149BA6813465B0013444D
:1043A0000B4422339B889BB203FB00F31A46FB6845
:1043B0001344FB60BB680133BB60BB68042B7FF711
:1043C0000EAFBB79FA6802FB03F3064AA2FB032394
:1043D0005B0918461037BD4680BD00BF909E002087
:1043E000C89F00201F85EB51B0B586B000AF0023F9
:1043F0007B6100233B610223FB603CE101F01EF97D
:104400000346002B00F0CE80AF4AFB681A2101FB67
:1044100003F3134400221A7100225A7100229A7188
:104420000022DA71FB68023BA84A34335B00134474
:104430005B79012B4ED10023BB603EE0A248BA68F5
:10444000F96813465B0013441A2202FB01F213447D
:1044500003440B331B78002B2CD09B4AFB681A219A
:1044600001FB03F313445968974CBA68F868134684
:104470005B0013441A2202FB00F2134423440B3363
:104480001B781D46904CBA68F86813465B001344CD
:104490001A2202FB00F21344234408339B889BB288
:1044A00003FB05F3CA188849FB681A2000FB03F3D5
:1044B0000B445A60BB680133BB60BB68042BBDDD95
:1044C000814AFB681A2101FB03F313445B683A69D4
:1044D00013443B617E4AFB681A2101FB03F313443A
:1044E00000221A7100225A7100229A710022DA7198
:1044F000FB68023B754A2C335B0013445B78012B4D
:1045000040F0B68000237B603EE071487A68F9682D
:1045100013465B0013441A2202FB01F213440344C6
:104520000B331B78002B2CD0694AFB681A2101FB46
:1045300003F313445968664C7A68F86813465B00C5
:1045400013441A2202FB00F2134423440B331B785A
:104550001D465F4C7A68F86813465B0013441A22C4
:1045600002FB00F21344234408339B889BB203FBF5
:1045700005F3CA185649FB681A2000FB03F30B44E5
:104580005A607B6801337B607B68042BBDDD504A39
:10459000FB681A2101FB03F313445B687A69134437
:1045A0007B6165E04A4AFB681A2101FB03F313446F
:1045B00000221A7100225A7100229A710022DA71C7
:1045C000FB68023B414A34335B0013445B79012BA7
:1045D0004ED100233B603EE03D483A68F9681346FF
:1045E0005B0013441A2202FB01F2134403440B3311
:1045F0001B78002B2CD0364AFB681A2101FB03F3F1
:1046000013445968324C3A68F86813465B00134407
:104610001A2202FB00F2134423440B331B781D467D
:104620002B4C3A68F86813465B0013441A2202FBCD
:1046300000F21344234408339B889BB203FB05F329
:10464000CA182349FB681A2000FB03F30B445A6085
:104650003B6801333B603B68042BBDDD1C4AFB68B3
:104660001A2101FB03F313445B683A6913443B616D
:10467000FB680133FB60FB680A2B7FF7BFAE154B6D
:104680009A6A144BDB6A13447A6913447B61114BB9
:104690001A6A104B5B6A13443A6913443B617A69A6
:1046A0003B691A440C4B1B689A4238D0074B0022D6
:1046B00083F870277A693B691344074A13607B6962
:1046C000002B0BD13B690AE0C89F002038830020F3
:1046D000909E00208C8E0020141F00207B692C4AA5
:1046E000C2F870322A4B93F868321A46294B1A6086
:1046F00029483AF00FFD264BD3F870321946274867
:104700003AF008FD26483AF005FD09202AF090FB12
:1047100007202AF08DFB08202AF08AFB34E01C4B8E
:1047200093F868321A461B4B1B689A4220D0184BEC
:1047300093F868321A46174B1A60154B002283F81B
:10474000702715483AF0E6FC114B93F86832194689
:1047500014483AF0DFFC12483AF0DCFC09202AF059
:1047600067FB07202AF064FB08202AF061FB0BE0BE
:10477000074B93F87037002B06D0054B002283F8C7
:10478000702707202AF054FB00BF1837BD46B0BD84
:1047900038830020181F0020C08D0A08D48D0A0815
:1047A000E48D0A08EC8D0A0880B582B000AF03469C
:1047B000FB71FB79184629F0E1FD034618460837DE
:1047C000BD4680BD80B582B000AF78607B68012BAC
:1047D00004D10E4B012283F8E12003E00B4B0022B1
:1047E00083F8E120094B93F8E0301846FFF7DCFF2F
:1047F0000346012B06D1054B93F8E0307968184643
:1048000029F028FE00BF0837BD4680BD3883002050
:1048100080B500AF094B93F8B934002B04D1084B95
:1048200093F8E130002B06D00020FFF7CBFF034BBD
:10483000002283F8B92400BF80BD00BF4498002047
:104840003883002080B592B000AFFFF731FC87EDD0
:10485000080AFFF71FFC87ED070A01F055FD034624
:10486000FB7601F097FD87ED050A01F0A3FD0346F5
:10487000FB74002387F84730CF4B1B681B6901335B
:10488000CE4A92F8BA249342C0F25583CA4B1B68B1
:104890001B690133C94A92F8BB24934200F34B834E
:1048A000C64B93F8BC341A46642303FB02F3C34A95
:1048B00092F8BD241344FB60C04B93F8BE341A46F3
:1048C000642303FB02F3BD4A92F8BF241344BB6088
:1048D000B94B1B689B68642202FB03F2B64B1B6852
:1048E0005B6813447B607A68FB689A42C0F211836C
:1048F0007A68BB689A4200F30C83002387F846303D
:10490000002387F845300023A7F842300023A7F89A
:104910004030AA4B93F8C134002B40F02582FB7E37
:10492000032B40F08280A54B93F8C434592B37D128
:10493000A34B93ED747AF1EE046AC7EE267AB1EEDA
:10494000087A77EE677AC7ED0F7AD7ED0F7AB7EE70
:10495000007AF4EEC77AF1EE10FA03D54FF07E53E9
:10496000FB630AE0D7ED0F7AB0EE087AF4EEC77A6F
:10497000F1EE10FA01DD934BFB63914B93ED727AEC
:10498000D7ED076AD7ED0F7A76EEA77AB4EEE77A1D
:10499000F1EE10FA00F2FE80012387F84730DBE2E7
:1049A000874B93ED737AD7ED087AB4EEE77AF1EEA0
:1049B00010FA03DB012387F84730CDE2804B93EDFB
:1049C000727AD7ED077AF0EE006A77EEE67AB4EE07
:1049D000E77AF1EE10FA08D4D7ED057AB1EE0C7A49
:1049E000F4EEC77AF1EE10FA03D8012387F84730C6
:1049F000B2E2FB7C012B40F0CD80D7ED057AB2EE20
:104A00000E7AF4EEC77AF1EE10FA0AD96C4BD3EDB8
:104A1000747AB3EE047AF4EEC77AF1EE10FA40F14C
:104A2000B980012387F8473096E2FB7E002B40F0E7
:104A3000B180624B93F8C434592B75D197ED057A48
:104A4000DFED616AC7EE267AB0EE007A77EE677A1C
:104A5000C7ED0E7AD7ED0E7AF5EEC07AF1EE10FAC8
:104A600003D54FF00003BB630BE0D7ED0E7AB7EE32
:104A7000007AF4EEC77AF1EE10FA02DD4FF07E53C1
:104A8000BB634F4B93ED747AF2EE046AC7EE267A5D
:104A9000B0EE087A77EE677AC7ED0D7AD7ED0D7A2A
:104AA000F5EEC07AF1EE10FA03D54FF000037B6308
:104AB0000AE0D7ED0D7AB0EE087AF4EEC77AF1EE9F
:104AC00010FA01DD3F4B7B6397ED0E7AD7ED0D7A3F
:104AD00077EE277AC7ED0C7AD7ED0C7AF5EEC07A2F
:104AE000F1EE10FA03D54FF000033B630AE0D7ED77
:104AF0000C7AB0EE087AF4EEC77AF1EE10FA01DD26
:104B0000304B3B632E4B93ED727AD7ED076AD7EDAE
:104B10000C7A76EEA77AB4EEE77AF1EE10FA39D88D
:104B2000012387F8473017E2254B93ED737AD7EDD1
:104B3000087AB4EEE77AF1EE10FA0DDA204B93ED35
:104B4000727AD7ED077AF0EE006A77EEE67AB4EE85
:104B5000E77AF1EE10FA03D5012387F84730FBE13D
:104B6000FB7C012B16D1D7ED057A9FED177AF4EE79
:104B7000C77AF1EE10FA09D9114BD3ED747AB3EE7E
:104B8000047AF4EEC77AF1EE10FA03D5012387F820
:104B90004730E1E10A4BD3ED747A9FED0C7AF4EEE5
:104BA000477AF1EE10FA03D1012387F84730D3E1B9
:104BB0000023FB622FE000BF7C7F00204498002090
:104BC0008C7D0020000040400000204200FEFF4697
:104BD000B54B93ED747AB54AFB6A52F8233007EE71
:104BE000903AF8EEE77AB4EEE77AF1EE10FA0CD8E4
:104BF000FB6A87F8453097F84530002B0FD097F8BF
:104C00004530013B87F8453009E0FB6A87F84530BD
:104C1000FB6A0133FB62FB6A0A2BD9DD00E000BFAF
:104C2000FB7E032B47D10023BB6218E0A04ABB6A7E
:104C300052F8233007EE903AB8EEE77AD7ED057ACE
:104C4000B4EEE77AF1EE10FA03DBBB6A87F8463080
:104C500008E0BB6A87F84630BB6A0133BB62BB6AB7
:104C6000042BE3DD97F8451097F84600914A0B4670
:104C70009B000B449B00034412F813105B00134489
:104C80005B781B020B43A7F8423097F8452097F852
:104C90004600884913469B0013449B0003441A1D99
:104CA00053000B44987853000B44DB781B020343FA
:104CB000A7F840304DE0FB7E002B4AD100237B62F9
:104CC00018E07D4A7B6A52F8233007EE903AB8EE3E
:104CD000E77AD7ED057AB4EEE77AF1EE10FA03DB66
:104CE0007B6A87F8463008E07B6A87F846307B6A43
:104CF00001337B627B6A042BE3DD97F8452097F84C
:104D000046006C4913469B0013449B00034403F187
:104D1000080253000B44187953000B445B791B02C3
:104D20000343A7F8423097F8452097F846006149B9
:104D300013469B0013449B00034403F10C025300F1
:104D40000B44987953000B44DB791B020343A7F80B
:104D50004030584BB7F84220A3F8C524554BB7F85C
:104D60004020A3F8C72416E0524B93F8C234012B1D
:104D700011D1504B93F8C52493F8C6341B0213434A
:104D8000A7F842304B4B93F8C72493F8C8341B0262
:104D90001343A7F84030B7F84230002B00F09E8054
:104DA000444B93F8B934002B1BD1424B012283F8BA
:104DB000B92400204BF014FD0246404B1A6001203C
:104DC000FFF700FD3E483AF0A5F93C4B1B68194639
:104DD0003C483AF09FF93C483AF09CF910202AF000
:104DE00027F8344B93F8B934012B29D100204BF02C
:104DF000F7FC0246354B1A60344B1A682F4B1B6880
:104E0000D21AB7F842309A421ADD0020FFF7DAFCD6
:104E1000284B022283F8B92429483AF07BF92B4B1E
:104E200019682A4B1A68254B1B68D31A1A4628485A
:104E30003AF070F924483AF06DF9102029F0F8FFA3
:104E40001C4B93F8B934022B73D100204BF0C8FCF3
:104E50000246204B1A601F4B1A681C4B1B68D21A63
:104E6000B7F840309A4264DD0120FFF7ABFC114BEC
:104E7000012283F8B924174B1B68104A13601048AD
:104E80003AF048F9134B1968124B1A680F4B1B681C
:104E9000D31A1A4610483AF03DF90B483AF03AF95D
:104EA000102029F0C5FF44E08C7D0020A8DB0B0812
:104EB000D4DB0B0844980020E8DB0B081C1F002003
:104EC000108E0A08248E0A08348E0A08201F00203B
:104ED0003C8E0A08241F00205C8E0A082A4B93F897
:104EE000B934012B09D10020FFF76CFC264B0022BE
:104EF00083F8B924102029F09BFF244B00221A606C
:104F0000224B1B68224A1360214B1B68214A136005
:104F10000FE01D4B93F8B934012B1CD10020FFF793
:104F200051FC194B002283F8B924102029F080FF8E
:104F300011E000BF0FE0144B93F8B934012B0BD1F3
:104F40000020FFF73FFC104B002283F8B92410200B
:104F500029F06EFF00E000BF0B4B93F8B934012B32
:104F60000DD197F84730012B09D10020FFF72AFC1B
:104F7000054B002283F8B924102029F059FF00BF07
:104F80004837BD4680BD00BF44980020241F002044
:104F9000201F00201C1F002080B483B000AF786069
:104FA0007B68002B02D16FF009034AE07B6893F81D
:104FB000BA24274B83F8BA247B6893F8BB24244B8C
:104FC00083F8BB247B6893F8BC24214B83F8BC2472
:104FD0007B6893F8BD241E4B83F8BD247B6893F84F
:104FE000BE241B4B83F8BE247B6893F8BF24184B68
:104FF00083F8BF247B6893F8C124154B83F8C12440
:105000007B6893F8C224124B83F8C2247B68B3F800
:10501000C7349AB20E4BA3F8C7247B68B3F8C534E3
:105020009AB20B4BA3F8C5247B6893F8C324084BB2
:1050300083F8C3247B6893F8C424054B83F8C42405
:10504000002318460C37BD465DF8047B704700BF4F
:105050004498002080B582B000AF78607B68002B58
:1050600002D16FF0090306E040F2C94204497868B2
:1050700039F0A4F9002318460837BD4680BD00BFAB
:105080004498002090B583B000AF0446084611460E
:105090001A462346FB710346BB710B46BB80134681
:1050A0007B80FB791D2B02D8BB79042B02D96FF0D2
:1050B000090341E001F028F90346032B18D1FA79DE
:1050C000B9791F4813469B0013449B000B44BA88D0
:1050D00020F81320FA79B979194813469B00134434
:1050E0009B000B4404335B0003447A885A8022E01F
:1050F00001F00AF90346002B1AD1FA79B979104860
:1051000013469B0013449B000B4408335B0003448D
:10511000BA889A80FA79B979094813469B001344F2
:105120009B000B440C335B0003447A88DA8002E076
:105130004FF0FF3300E0002318460C37BD4690BD0A
:105140004498002080B582B000AF78607B68002B67
:1051500002D14FF0FF3350E02A4B93F8E03018466D
:10516000FFF722FB02467B681A60264B93F8E0208B
:105170007B681A71234B93F8E1207B685A71224BAC
:1051800093F8B9247B689A711F4B93F8C1247B680C
:10519000DA711D4B93F8C2247B681A721A4B93F88C
:1051A000C4247B685A72184BB3F8C5349AB27B6832
:1051B0005A81154BB3F8C7349AB27B689A81134B66
:1051C000D3F8C8217B681A61FEF764FFF0EE407ADD
:1051D0007B68C3ED057A0D4BD3F8CC217B689A61CF
:1051E000FEF766FFF0EE407A7B68C3ED077A074B67
:1051F000D3F8D0217B681A62002318460837BD46D1
:1052000080BD00BF38830020449800208C7D0020A2
:1052100080B483B000AF0346FB710A4BB3F8C131D1
:105220009BB21A46FB7942FA03F303F00103002B09
:1052300014BF01230023DBB218460C37BD465DF8CE
:10524000047B7047807F00202DE9B04F8EB008AFFF
:10525000FEF720FF87ED050AAF4BD3F8E031AF4AE8
:10526000B2F8BD2192B2934212DDAB4BD3F8E031DC
:1052700047F6FF7293420BD00620FFF7C9FF0346A3
:10528000012B05D103220821A548FDF795FA04E07A
:1052900003220821A248FDF7A1FA9F4BD3F8DC3185
:1052A0009E4AB2F8BB2192B2934212DD9A4BD3F8D8
:1052B000DC3147F6FF7293420BD00520FFF7A8FFC1
:1052C0000346012B05D1032204219648FDF774FA09
:1052D00004E0032204219348FDF780FA8E4BD3F8B3
:1052E000D8318E4AB2F8BF2192B2934212DD8A4B76
:1052F000D3F8D83147F6FF7293420BD00720FFF75F
:1053000087FF0346012B05D1032205218648FDF7BF
:1053100053FA04E0032205218348FDF75FFA7F4B2F
:1053200093F88231002B14D000F090F90346002B43
:105330000FD0794BD3F8B43103F00F03002B04D016
:10534000764B012283F8812103E0744B002283F81D
:105350008121714BD3ED727A9FED747AF4EE477A26
:10536000F1EE10FA00F0D28001F09CFD0346002B14
:1053700000F0CC80684B93ED727AD7ED057AB4EEED
:10538000E77AF1EE10FA1CD5634BD3ED727A97ED04
:10539000057A77EE677A614BD3F8AB3107EE103AB6
:1053A000F4EEC77AF1EE10FA0BDD0120FFF730FFC3
:1053B0000346012B05D1052200215D48FDF7FCF9CC
:1053C00004E0052200215A48FDF708FA524B93EDFC
:1053D000727AD7ED057A77EE677AC7ED047A002006
:1053E000FFF716FFF8604C4BD3F8C8311846FBF7AF
:1053F000D9FBC7E900017869FBF7D4FB04460D46E9
:105400003869FBF7CFFB80468946444BD3F8A73178
:105410001846FBF7C7FB82468B4601F043FD034667
:105420000793FB680693CDE904ABCDE90289CDE98A
:105430000045D7E900233F4839F06CFE364B93ED29
:10544000727AD7ED057AB4EEE77AF1EE10FA1CDD48
:10545000314B93ED727AD7ED057A77EE677A2F4B61
:10546000D3F8A73107EE103AF4EEC77AF1EE10FA4E
:105470000BDD0020FFF7CCFE0346012B05D10622F1
:1054800000212D48FDF798F904E0062200212A4862
:10549000FDF7A4F9204BD3ED737A204BD3F8B33149
:1054A00007EE103AF4EEC77AF1EE10FA0BD50320AE
:1054B000FFF7AEFE0346012B05D1072200211F484E
:1054C000FDF77AF904E0072200211C48FDF786F970
:1054D000114BD3ED737A114BD3F8AF3107EE103A7D
:1054E000F4EEC77AF1EE10FA0BDD0220FFF790FE22
:1054F0000346012B05D1082200211148FDF75CF974
:1055000004E0082200210E48FDF768F900BF1837B3
:10551000BD46BDE8B08F00BF8C7D0020807F00209D
:105520005C7D0020547D00204C7D002000FEFF4665
:105530002C7D0020808E0A08347D00203C7D0020D8
:10554000447D002080B483B000AF78607B68002B7E
:105550000BD07B680022DA707B68DB889BB223F477
:1055600080739AB27B68DA8000E000BF0C37BD46DA
:105570005DF8047B704700BF80B582B000AF7860F3
:105580007B68002B02D16FF0090308E00A2206496C
:10559000786838F013FF7868FFF7D4FF00231846C7
:1055A0000837BD4680BD00BFAB7F002080B586B008
:1055B00000AF78607B68002B02D16FF0090313E025
:1055C00007F10C030A227968184638F0F7FE07F154
:1055D0000C031846FFF7B6FF07F10C030A22194621
:1055E000034838F0EBFE002318461837BD4680BD4F
:1055F000AB7F002080B400AF034B93F82B301846EC
:10560000BD465DF8047B7047807F002080B400AF0A
:10561000034B93F82C301846BD465DF8047B704769
:10562000807F002080B400AF034B93F82D301846E4
:10563000BD465DF8047B7047807F002080B400AFDA
:1056400000231846BD465DF8047B704780B400AF68
:1056500000231846BD465DF8047B704780B400AF58
:1056600001231846BD465DF8047B704780B483B0C3
:1056700000AF0346FB71FB79082B01D100230EE03C
:105680000A4BB3F831309BB21A46FB7942FA03F366
:1056900003F00103002B14BF01230023DBB21846E3
:1056A0000C37BD465DF8047B704700BF807F00204B
:1056B00080B584B000AF786000F04EFE0346FB81F9
:1056C0007B68B3F90030B7F90E209A4208DB7B689B
:1056D000B3F90230B7F90E209A4201DC012300E051
:1056E000002318461037BD4680BD00BF80B586B088
:1056F00000AFF860B9607A603B60FEF7CBFC87EDE5
:10570000050AFB681A7C394B1A70394BD3ED727A53
:1057100097ED057A37EE677AFB68D3ED017AB4EE40
:10572000E77AF1EE10FA23DB00204BF059F802463D
:105730007B681A60BB681B68002B03D17B681A6802
:10574000BB681A607B681A68BB681B68D21AFB6862
:105750009B8919460B461B015B1A9B009A4203DB8F
:10576000244B012283F8C5203B6800221A6038E0F0
:105770001F4B93ED727AD7ED057A37EE677AFB68A7
:10578000D3ED027AB4EEE77AF1EE10FA23DD0020D1
:105790004BF026F802463B6A1A603B681B68002BF8
:1057A00003D13B6A1A683B681A603B6A1A683B6817
:1057B0001B68D21AFB68DB8919460B461B015B1A72
:1057C0009B009A4203DB0B4B002283F8C520BB6889
:1057D00000221A6005E0BB6800221A603B680022C4
:1057E0001A6000BF1837BD4680BD00BF281F0020CB
:1057F0008C7D002038830020B0B489B000AF786081
:10580000134BB3F9E431BB81114BB3F9E631FB81A2
:105810000F4BD3F8E8313B610D4BD3F8EC317B6192
:105820000B4BB3F8F0313B83094BB3F8F2317B8378
:1058300001233B777B681D4607F10C040FCC0FC595
:1058400023682B6078682437BD46B0BC704700BF22
:10585000807F0020B0B489B000AF7860134BB3F9FB
:10586000F431BB81114BB3F9F631FB810F4BD3F807
:10587000F8313B610D4BD3F8FC317B610B4BB3F836
:1058800000323B83094BB3F802327B8302233B7720
:105890007B681D4607F10C040FCC0FC523682B60F5
:1058A00078682437BD46B0BC704700BF807F0020B9
:1058B00080B58CB002AF07F114031846FFF79CFFC8
:1058C0003B461846FFF7C6FF244B00221A7007F12B
:1058D00014031846FFF7ECFE0346012B08D107F12D
:1058E00014001F4B00931F4B1F4A2049FFF7FEFE79
:1058F0003B461846FFF7DCFE0346012B07D138462E
:10590000174B0093174B184A1849FFF7EFFE184B37
:1059100093F8C520174B1B789A421AD0144B93F872
:10592000C520144B1A70124B93F8C530002B07D0CA
:105930000F4B93F8C4300121184628F08BFD05E089
:105940000B4B93F8C430184628F0C0FD182029F0FE
:105950006FFA00BF2837BD4680BD00BF281F00205A
:10596000381F0020341F0020301F00202C1F002073
:10597000388300203C1F002080B500AF094B93F80E
:10598000C530002B09D0074B93F8C430184628F0D7
:105990009DFD044B002283F8C520034B00221A70A2
:1059A00000BF80BD38830020281F002080B483B052
:1059B00000AF78607B68002B02D16FF009034CE0E8
:1059C0007B68B3F902301AB2274BA3F8E4217B6855
:1059D000B3F904301AB2244BA3F8E6217B68D3F85C
:1059E0000630214AC2F8E8317B68DB899AB21E4B47
:1059F000A3F8F0217B68D3F80A301B4AC2F8EC31D7
:105A00007B681B8A9AB2184BA3F8F2217B68B3F922
:105A100012301AB2144BA3F8F4217B68B3F9143096
:105A20001AB2114BA3F8F6217B68D3F816300E4A50
:105A3000C2F8F8317B68DB8B9AB20B4BA3F80022DB
:105A40007B68D3F81A30084AC2F8FC317B681B8C9B
:105A50009AB2054BA3F80222002318460C37BD4624
:105A60005DF8047B704700BF807F002080B582B066
:105A700000AF78607B68002B02D16FF0090305E06E
:105A800022220449786838F099FC00231846083728
:105A9000BD4680BD6281002080B582B000AF7860D5
:105AA0007B68002B02D14FF0FF334DE0284B93F879
:105AB000C4207B681A70264B93F8C5207B685A7007
:105AC00000F04AFC03469AB27B685A80214B1A7850
:105AD0007B681A71204BD3F8C8217B689A60FEF767
