:020000040802F0
:100000008C1E0020F942050849430508D102020868
:100010004943050849430508494305080000000015
:100020000000000000000000000000004943050837
:100030004943050800000000130202083146090880
:10004000494305084943050849430508494305084C
:100050004943050849430508390A0908510A0908AE
:10006000690A0908810A0908990A0908A13B0908CF
:10007000313B0908494305084D3B0908CD320908C1
:10008000494305084943050849430508AD1E0908C9
:10009000A11F0908BD1F0908D91F0908B10A0908CD
:1000A0004943050849430508A94B09084943050880
:1000B00049430508494305084943050849430508DC
:1000C00049430508494305084943050849430508CC
:1000D000B1320908DD3A0908F93A0908153B09085F
:1000E000E50A090849430508494305084943050845
:1000F000C54B090849430508494305084943050814
:10010000494305084943050849430508494305088B
:10011000693B0908853B0908494305084943050827
:10012000494305084943050849430508494305086B
:1001300049430508C95409084943050849430508C6
:10014000494305084943050849430508494305084B
:10015000494305084943050849430508BD3B0908CB
:10016000494305084943050849430508494305082B
:1001700049430508494305084943050800000000B4
:10018000494305084943050810B5054C237833B9A0
:10019000044B13B10448AFF300800123237010BD5A
:1001A0008C1E002000000000C4280C08084B10B56D
:1001B0001BB108490848AFF300800848036803B939
:1001C00010BD074B002BFBD0BDE81040184700BF07
:1001D00000000000901E0020C4280C088C1A00208B
:1001E00000000000EFF3108072B6704780F31088B3
:1001F0007047464A1368012B04D04FF00103136087
:10020000434A1060434A116043484FF080510160F7
:100210007047EFF3108272B63C48016851B34FF05B
:10022000000101603A48016891B1EFF309811EF0C5
:10023000100F08BF21ED108B21E9F00F4FF00004E3
:100240001EF0100F08BF012441F8044D0068016042
:1002500030490968096808C9B1E8F00F002B18BFD8
:10026000B1EC108B81F309884EF0100E002B18BFF3
:100270002EF0100E82F310884EF0040E70472549C0
:100280000860EFF3148222F0040282F314882049FC
:100290004FF0000008601D494FF0010008601F4842
:1002A0001F49D0F8002041EA020101601A484FF0CE
:1002B000805101601B480068006800BF80F3088817
:1002C00061B662B6BFF34F8FBFF36F8F704700BF49
:1002D000EFF308801EF0040F01D0EFF3098020E94E
:1002E000F00F40F804ED40F804ED1EF0040F02D0CA
:1002F00080F3098801E080F3088800B542F0C8FC6B
:100300005DF804EB4EF0040E7047000028A20020B8
:1003100030A200202CA2002004ED00E020ED00E03F
:100320000000FFFF08ED00E00000000000000000FA
:1003300001F0FF01102A2BDB10F0070F08D010F896
:10034000013B013A8B422DD010F0070F42B3F6D19A
:10035000F0B441EA012141EA014122F007047FF0B3
:1003600000070023F0E80256083C85EA010586EA0A
:10037000010685FA47F5A3FA87F586FA47F6A5FA46
:1003800087F68EB9EED1F0BC01F0FF0102F0070252
:1003900032B110F8013B013A83EA010313B1F8D1FD
:1003A0000020704701387047002D06BF35460338DE
:1003B000073815F0010F07D1013015F4807F02BF17
:1003C000013015F4C03F0130F0BC0138704700BF68
:1003D000844641EA000313F003036DD1403A41D350
:1003E00051F8043B40F8043B51F8043B40F8043B0F
:1003F00051F8043B40F8043B51F8043B40F8043BFF
:1004000051F8043B40F8043B51F8043B40F8043BEE
:1004100051F8043B40F8043B51F8043B40F8043BDE
:1004200051F8043B40F8043B51F8043B40F8043BCE
:1004300051F8043B40F8043B51F8043B40F8043BBE
:1004400051F8043B40F8043B51F8043B40F8043BAE
:1004500051F8043B40F8043B51F8043B40F8043B9E
:10046000403ABDD2303211D351F8043B40F8043B3E
:1004700051F8043B40F8043B51F8043B40F8043B7E
:1004800051F8043B40F8043B103AEDD20C3205D34E
:1004900051F8043B40F8043B043AF9D2043208D046
:1004A000D2071CBF11F8013B00F8013B01D30B88B8
:1004B00003806046704700BF082A13D38B078DD096
:1004C00010F003038AD0C3F10403D21ADB071CBF68
:1004D00011F8013B00F8013B80D331F8023B20F8D2
:1004E000023B7BE7043AD9D3013A11F8013B00F80B
:1004F000013BF9D20B7803704B7843708B78837093
:10050000604670470000000000000000000000008E
:1005100000000000000000000000000000000000DB
:10052000A2EB0300704700BF02780B78012A28BFB6
:100530009A42F5D16DE9044540EA0104CDE902672C
:100540006FF0000C4FEA447212B380EA010414F019
:10055000070F6AD100F0070420F0070004F003053C
:1005600021F007014FEAC505F0E8042314F0040F59
:10057000F1E804670CFA05F462EA040266EA04068C
:100580000AD063EA0403624667EA0407664603E0AA
:10059000F0E80423F1E8046782FA4CF582EA0604E5
:1005A000A4FA8CF46CBB83FA4CF583EA0705A5FA30
:1005B0008CF595B950E9022351E9026782FA4CF5AE
:1005C00082EA0604A4FA8CF483FA4CF583EA070560
:1005D000A5FA8CF52543DBD09CB92DBAB5FA85F484
:1005E00024F0070427FA04F1DDE9026723FA04F393
:1005F00003F0FF0001F0FF01FDE80445A0EB01005E
:10060000704724BAB4FA84F424F0070426FA04F1FB
:10061000DDE9026722FA04F202F0FF0001F0FF01B7
:10062000FDE80445A0EB0100704714F0030F3CD136
:1006300010F0030428D150F8082B51F8083B82FA37
:100640004CF582EA0305A5FA8CF55DB950F8042C47
:1006500051F8043C82FA4CF582EA0305A5FA8CF5C0
:10066000002DE8D02DBAB5FA85F424F0070423FA5A
:1006700004F122FA04F202F0FF0001F0FF01FDE8AC
:100680000445A0EB010070474FEAC40420F00300CA
:1006900050F8082B21F0030151F8083B0CFA04F440
:1006A00062EA040263EA0403C9E710F003041AD003
:1006B000A1EB040120F00300E40750F8042B06D05E
:1006C0000FD28B785FFAA2F4E41A06D12BB1CB7863
:1006D0005FFAB2F4E41A00D11BB920465DF8104B62
:1006E000704701F1040150F8042BCC0721F00301FD
:1006F00051F8043B48D824D222F07F4482FA4CF5CA
:1007000094EA1325A5FA8CF50AD165B951F8043B92
:1007100084EA0204B4EB036F0ED150F8042BEBE72C
:100720004FEA132355E035F07F454DD10878FDE8B9
:100730000445C0F1000070474FEA126203F0FF0366
:1007400047E002EA1C4482FA4CF594EA1345A5FA04
:100750008CF50AD165B951F8043B84EA0204B4EB84
:10076000034F0CD150F8042BEBE74FEA134330E072
:1007700015EA1C4528D10B884FEA124229E04FEABE
:10078000124203EA1C4324E002F0FF0482FA4CF513
:1007900094EA1365A5FA8CF50AD165B951F8043BC2
:1007A00084EA0204B4EB032F09D150F8042BEBE7E1
:1007B0004FEA13630DE015F0FF0F05D10B684FEA08
:1007C000122223F07F4304E04FF00000FDE80445CF
:1007D000704712BA1BBA82FA4CF482EA0304A4FAF4
:1007E0008CF5B5FA85F402FA04F203FA04F34FEA41
:1007F0001260FDE80445A0EB1360704700000000A4
:1008000090F800F06DE9024520F007016FF0000C50
:1008100010F0070491F820F040F049804FF00004F8
:100820006FF00700D1E9002391F840F000F10800D3
:1008300082FA4CF2A4FA8CF283FA4CF3A2FA8CF30B
:100840004BBBD1E9022382FA4CF200F10800A4FA72
:100850008CF283FA4CF3A2FA8CF3E3B9D1E90423C6
:1008600082FA4CF200F10800A4FA8CF283FA4CF3FD
:10087000A2FA8CF37BB9D1E9062301F1200182FAB7
:100880004CF200F10800A4FA8CF283FA4CF3A2FABD
:100890008CF3002BC6D0002A04BF04301A4612BACB
:1008A000B2FA82F2FDE8024500EBD2007047D1E9CE
:1008B000002304F00305C4F100004FEAC50514F05D
:1008C000040F91F840F00CFA05F562EA05021CBF2E
:1008D00063EA050362464FF00004A9E781F0004196
:1008E00002E000BF83F0004330B54FEA41044FEA15
:1008F000430594EA050F08BF90EA020F1FBF54EAB0
:10090000000C55EA020C7FEA645C7FEA655C00F04B
:10091000E2804FEA5454D4EB5555B8BF6D420CDD1C
:100920002C4480EA020281EA030382EA000083EA9F
:10093000010180EA020281EA0303362D88BF30BD3F
:1009400011F0004F4FEA01314FF4801C4CEA113195
:1009500002D0404261EB410113F0004F4FEA0333F4
:100960004CEA133302D0524263EB430394EA050F7F
:1009700000F0A780A4F10104D5F1200E0DDB02FAEE
:100980000EFC22FA05F2801841F1000103FA0EF282
:10099000801843FA05F359410EE0A5F120050EF148
:1009A000200E012A03FA0EFC28BF4CF0020C43FA79
:1009B00005F3C01851EBE37101F0004507D54FF086
:1009C000000EDCF1000C7EEB00006EEB0101B1F5D6
:1009D000801F1BD3B1F5001F0CD349085FEA30001C
:1009E0004FEA3C0C04F101044FEA445212F5800F27
:1009F00080F09A80BCF1004F08BF5FEA500C50F1C4
:100A0000000041EB045141EA050130BD5FEA4C0CA6
:100A1000404141EB010111F4801FA4F10104E9D12F
:100A200091F0000F04BF01460020B1FA81F308BF26
:100A30002033A3F10B03B3F120020CDA0C3208DDF2
:100A400002F1140CC2F10C0201FA0CF021FA02F1CD
:100A50000CE002F11402D8BFC2F1200C01FA02F13D
:100A600020FA0CFCDCBF41EA0C019040E41AA2BF62
:100A700001EB0451294330BD6FEA04041F3C1CDA2A
:100A80000C340EDC04F11404C4F1200220FA04F04A
:100A900001FA02F340EA030021FA04F345EA0301F4
:100AA00030BDC4F10C04C4F1200220FA02F001FAB6
:100AB00004F340EA0300294630BD21FA04F0294638
:100AC00030BD94F0000F83F4801306BF81F48011D1
:100AD0000134013D4EE77FEA645C18BF7FEA655C44
:100AE00029D094EA050F08BF90EA020F05D054EA16
:100AF000000C04BF1946104630BD91EA030F1EBF1B
:100B00000021002030BD5FEA545C05D1400049411E
:100B100028BF41F0004130BD14F580043CBF01F511
:100B2000801130BD01F0004545F0FE4141F47001F7
:100B30004FF0000030BD7FEA645C1ABF19461046D2
:100B40007FEA655C1CBF0B46024650EA013406BFD3
:100B500052EA033591EA030F41F4002130BD00BF92
:100B600090F0000F04BF0021704730B54FF480644F
:100B700004F132044FF000054FF0000150E700BFD0
:100B800090F0000F04BF0021704730B54FF480642F
:100B900004F1320410F0004548BF40424FF000011C
:100BA0003EE700BF42004FEAE2014FEA31014FEA5F
:100BB00002701FBF12F07F4393F07F4F81F06051AE
:100BC000704792F0000F14BF93F07F4F704730B51D
:100BD0004FF4607401F0004521F0004120E700BFB0
:100BE00050EA010208BF704730B54FF000050AE037
:100BF00050EA010208BF704730B511F0004502D538
:100C0000404261EB41014FF4806404F132045FEA39
:100C1000915C3FF4DCAE4FF003025FEADC0C18BFDE
:100C200003325FEADC0C18BF033202EBDC02C2F1D4
:100C3000200300FA03FC20FA02F001FA03FE40EA66
:100C40000E0021FA02F11444C1E600BF70B54FF066
:100C5000FF0C4CF4E06C1CEA11541DBF1CEA135548
:100C600094EA0C0F95EA0C0F00F0DEF82C4481EAB0
:100C7000030621EA4C5123EA4C5350EA013518BFD0
:100C800052EA033541F4801143F4801338D0A0FBBD
:100C900002CE4FF00005E1FB02E506F00042E0FB6A
:100CA00003E54FF00006E1FB03569CF0000F18BF70
:100CB0004EF0010EA4F1FF04B6F5007F64F5407418
:100CC00004D25FEA4E0E6D4146EB060642EAC621AB
:100CD00041EA55514FEAC52040EA5E504FEACE2E18
:100CE000B4F1FD0C88BFBCF5E06F1ED8BEF1004F1B
:100CF00008BF5FEA500E50F1000041EB045170BD97
:100D000006F0004646EA010140EA020081EA0301DA
:100D1000B4EB5C04C2BFD4EB0C0541EA045170BDD6
:100D200041F480114FF0000E013C00F3AB8014F150
:100D3000360FDEBF002001F0004170BDC4F1000499
:100D4000203C35DA0C341BDC04F11404C4F120051A
:100D500000FA05F320FA04F001FA05F240EA020075
:100D600001F0004221F0004110EBD37021FA04F6AB
:100D700042EB06015EEA430E08BF20EAD37070BD65
:100D8000C4F10C04C4F1200500FA04F320FA05F0C4
:100D900001FA04F240EA020001F0004110EBD370C6
:100DA00041F100015EEA430E08BF20EAD37070BD36
:100DB000C4F1200500FA05F24EEA020E20FA04F30F
:100DC00001FA05F243EA020321FA04F001F00041BE
:100DD00021FA04F220EA020000EBD3705EEA430E2F
:100DE00008BF20EAD37070BD94F0000F0FD101F05E
:100DF0000046400041EB010111F4801F08BF013C97
:100E0000F7D041EA060195F0000F18BF704703F0D4
:100E10000046520043EB030313F4801F08BF013D5B
:100E2000F7D043EA0603704794EA0C0F0CEA135517
:100E300018BF95EA0C0F0CD050EA410618BF52EAD1
:100E40004306D1D181EA030101F000414FF00000D7
:100E500070BD50EA410606BF1046194652EA4306E5
:100E600019D094EA0C0F02D150EA013613D195EA59
:100E70000C0F05D152EA03361CBF104619460AD1A1
:100E800081EA030101F0004141F0FE4141F47001AB
:100E90004FF0000070BD41F0FE4141F4780170BD9B
:100EA00070B54FF0FF0C4CF4E06C1CEA11541DBF00
:100EB0001CEA135594EA0C0F95EA0C0F00F0A7F802
:100EC000A4EB050481EA030E52EA03354FEA01312F
:100ED00000F088804FEA03334FF0805545EA131342
:100EE00043EA12634FEA022245EA111545EA10650A
:100EF0004FEA00260EF000419D4208BF964244F1A1
:100F0000FD0404F5407402D25B084FEA3202B61ABF
:100F100065EB03055B084FEA32024FF480104FF493
:100F2000002CB6EB020E75EB030E22BFB61A754607
:100F300040EA0C005B084FEA3202B6EB020E75EB9A
:100F4000030E22BFB61A754640EA5C005B084FEA02
:100F50003202B6EB020E75EB030E22BFB61A7546CF
:100F600040EA9C005B084FEA3202B6EB020E75EBDA
:100F7000030E22BFB61A754640EADC0055EA060E9B
:100F800018D04FEA051545EA16754FEA06164FEADE
:100F9000C30343EA52734FEAC2025FEA1C1CC0D18A
:100FA00011F4801F0BD141EA00014FF000004FF017
:100FB000004CB6E711F4801F04BF01430020B4F1D8
:100FC000FD0C88BFBCF5E06F3FF6AFAEB5EB030C90
:100FD00004BFB6EB020C5FEA500C50F1000041EB8D
:100FE000045170BD0EF0004E4EEA113114EB5C045A
:100FF000C2BFD4EB0C0541EA045170BD41F480112D
:101000004FF0000E013C90E645EA060E8DE60CEA34
:10101000135594EA0C0F08BF95EA0C0F3FF43BAF51
:1010200094EA0C0F0AD150EA01347FF434AF95EA08
:101030000C0F7FF425AF104619462CE795EA0C0FEC
:1010400006D152EA03353FF4FDAE1046194622E7B9
:1010500050EA410618BF52EA43067FF4C5AE50EA93
:1010600041047FF40DAF52EA43057FF4EBAE12E783
:101070004FF0FF3C06E000BF4FF0010C02E000BF64
:101080004FF0010C4DF804CD4FEA410C7FEA6C5C47
:101090004FEA430C18BF7FEA6C5C1BD001B050EAEA
:1010A000410C0CBF52EA430C91EA030F02BF90EAD5
:1010B000020F0020704710F1000F91EA030F58BF94
:1010C000994208BF90422CBFD8176FEAE37040F0F6
:1010D000010070474FEA410C7FEA6C5C02D150EA94
:1010E000013C07D14FEA430C7FEA6C5CD6D152EA4F
:1010F000033CD3D05DF8040B704700BF8446104614
:1011000062468C461946634600E000BF01B5FFF712
:10111000B7FF002848BF10F1000F01BD4DF808EDE2
:10112000FFF7F4FF0CBF012000205DF808FB00BFB3
:101130004DF808EDFFF7EAFF34BF012000205DF80D
:1011400008FB00BF4DF808EDFFF7E0FF94BF01205A
:1011500000205DF808FB00BF4DF808EDFFF7CEFF5B
:1011600094BF012000205DF808FB00BF4DF808ED9A
:10117000FFF7C4FF34BF012000205DF808FB00BF6B
:101180004FEA410C7FEA6C5C02D150EA013C0AD183
:101190004FEA430C7FEA6C5C02D152EA033C02D175
:1011A0004FF0000070474FF0010070474FEA4102D6
:1011B00012F5001215D211D56FF47873B3EB6252A9
:1011C00012D94FEAC12343F0004343EA505311F0D0
:1011D000004F23FA02F018BF404270474FF0000062
:1011E000704750EA013005D111F0004008BF6FF0A0
:1011F000004070474FF00000704700BF4A0011D216
:1012000012F5001211D20DD56FF47873B3EB625260
:101210000ED44FEAC12343F0004343EA505323FA6C
:1012200002F070474FF00000704750EA013002D1E1
:101230004FF0FF3070474FF0000070474FEA410217
:10124000B2F1E04324BFB3F5001CDCF1FE5C0DD924
:1012500001F0004C4FEAC0024CEA5070B2F1004F6E
:1012600040EB830008BF20F00100704711F0804F71
:1012700021D113F13872BCBF01F00040704741F436
:1012800080114FEA5252C2F11802C2F1200C10FA3A
:101290000CF320FA02F018BF40F001004FEAC1231E
:1012A0004FEAD32303FA0CFC40EA0C0023FA02F3C2
:1012B0004FEA4303CCE77FEA625307D150EA013398
:1012C0001EBF4FF0FE4040F44000704701F0004068
:1012D00040F0FE4040F40000704700BF53B94AB9E7
:1012E000002908BF00281CBF4FF0FF314FF0FF302E
:1012F00000F07EB9ADF1080C6DE904CE00F006F8FF
:10130000DDF804E0DDE9022304B070472DE9F04781
:101310008C460E460446089D002B50D18A42174643
:101320006CD9B2FA82FEBEF1000F0BD0CEF12004D0
:1013300020FA04F401FA0EF644EA060C02FA0EF75B
:1013400000FA0EF44FEA1749220CBCFBF9F01FFA21
:1013500087F809FB10C642EA064600FB08F3B342D1
:1013600009D9F61900F1FF3280F02281B34240F230
:101370001F8102383E44F61AA2B2B6FBF9F309FB0C
:10138000136642EA064403FB08F8A04509D9E419AC
:1013900003F1FF3280F00A81A04540F20781023B51
:1013A0003C44C8EB040443EA00400021002D62D015
:1013B00024FA0EF400232C606B60BDE8F0878B42AA
:1013C00007D9002D55D0002185E841000846BDE829
:1013D000F087B3FA83F1002940F09080B34202D342
:1013E000824200F2F880841A66EB03060120B446BC
:1013F000002D40D085E81010BDE8F08712B9012714
:10140000B7FBF2F7B7FA87FEBEF1000F35D1F31B39
:101410004FEA17481FFA87FC0121B3FBF8F0220CB2
:1014200008FB103642EA06460CFB00F3B34207D92C
:10143000F61900F1FF3202D2B34200F2CE8010461C
:10144000F61AA2B2B6FBF8F308FB136642EA0644AA
:101450000CFB03FCA44507D9E41903F1FF3202D2C7
:10146000A44500F2B5801346CCEB040443EA0040E7
:101470009CE729462846BDE8F087CEF1200106FA10
:101480000EF307FA0EF720FA01F94FEA1748CE409B
:1014900049EA0309B6FBF8FA4FEA194408FB1A6651
:1014A0001FFA87FC44EA06430AFB0CF29A4200FA50
:1014B0000EF40AD9DB190AF1FF3180F087809A42D5
:1014C00040F28480AAF1020A3B449B1A1FFA89F970
:1014D000B3FBF8F108FB113349EA034301FB0CF6B7
:1014E0009E4207D9DB1901F1FF326BD29E4269D9C6
:1014F00002393B449B1B41EA0A418EE7C1F1200EB1
:1015000022FA0EF48B40234320FA0EF706FA01F478
:101510004FEA134C26FA0EF63C43B6FBFCF9270CB7
:101520000CFB19661FFA83F847EA064609FB08F721
:10153000B74202FA01F200FA01FA08D9F61809F1E5
:10154000FF3041D2B7423FD9A9F102091E44F61B30
:10155000A0B2B6FBFCF40CFB146640EA064704FBA1
:1015600008F8B84507D9FF1804F1FF3028D2B8456C
:1015700026D9023C1F4444EA0940C8EB0707A0FBF8
:1015800002894F4544464E4614D329D065B3BAEB81
:10159000040367EB060707FA0EFECB40CF404EEA86
:1015A000030385E888000021BDE8F0871346F8E6CC
:1015B0001046E0E6B8EB020469EB03060138E5E704
:1015C0000446D8E7114695E78146C0E78A467CE79E
:1015D000023B3C4448E708460AE702383E442FE70E
:1015E000C245E7D33E46D1E72946BDE8F08700BFB4
:1015F000704700BF80B582B000AF1DF003FF034607
:10160000FB80FB88002B01D0FB8802E005F0CCFBBF
:10161000034618460837BD4680BD00BF2DE9F0419E
:1016200092B004AF0346FB710B46BB7113467B714E
:1016300000204FF055F97863002387F83330FFF727
:10164000D9FF0346002B03D13C4840F0BFF970E0BE
:1016500007F108032422002118463FF0AFFA0123C6
:101660007B7307F108037A79B979F87900F066FCA1
:10167000034687F8323097F83230184600F0A6FF5C
:10168000034687F8333097F83230184601F068F88F
:101690000346002B14BF01230023DBB2FB62FD795C
:1016A000BE7997F8328097F8334097F83330796BEA
:1016B000184601F0A1F93860FFF79CFF03461A466F
:1016C000FB6A039302923B680193009443463246BF
:1016D00029461B4840F07AF997F83330796B184661
:1016E00001F08AF90346002B23D0FFF783FF03465E
:1016F000002B0DD097F83230184601F081F897F89A
:101700003210104BD3F8E8311A460F4840F05EF91A
:101710003B7B002B07D097F83220797907F108033B
:10172000184601F0D5FFFB6A012B02D000202DF0F6
:10173000CFF93837BD46BDE8F08100BF888C0A0874
:10174000A08C0A08387F0020EC8C0A0880B58CB089
:1017500000AF0346FB710B46BB7113467B7107F16B
:1017600008032422002118463FF028FA00237B7347
:1017700007F108037A79B979F87900F0DFFB0346BD
:1017800087F82F303B7B002B07D097F82F207979F3
:1017900007F10803184601F0D7FF00BF3037BD46F8
:1017A00080BD00BF80B58EB000AF0346FB710B4615
:1017B000BB7113467B71002387F8373007F10C03A8
:1017C0002422002118463FF0F9F900237B7407F129
:1017D0000C037A79B979F87900F0B0FB034687F801
:1017E000363097F83630184600F0F0FE034687F89A
:1017F000373097F83630184600F0B2FF0346002B1A
:1018000014BF01230023DBB23B6397F83630184640
:1018100001F018F83B7C002B0CD097F83620797932
:1018200007F10C03184601F0CDFF97F83730184642
:1018300001F028FA00202DF04BF900BF3837BD46E3
:1018400080BD00BF80B582B000AF78600B46FB70F2
:101850001346BB707B68002B09D07B6801221A718C
:10186000B978FB7800221846FFF7D8FE00E000BFE9
:101870000837BD4680BD00BF80B586B000AF786038
:101880000B46FB701346BB7000204FF029F87861BF
:101890007B68002B27D07B681B79012B05D17B68E7
:1018A00000221A717B687A691A601DF0C3FD034635
:1018B0007B827B8A002B01D07B8A00E0B423FB6013
:1018C0007B681B687A69D31A1A46FB689A420BD95F
:1018D0007B681B79002B07D1B978FB78002218466A
:1018E000FFF760FF00E000BF1837BD4680BD00BFB6
:1018F00080B588B002AF0346BA60FB730B46BB737A
:10190000FB7B112B00F2F78001A252F823F000BFFD
:1019100059190208F71A0208F71A0208F71A0208FA
:101920007B1902089D190208411A0208EF190208E2
:10193000931A0208E51A0208EB1A0208F71A0208BD
:10194000F71A0208F71A0208F71A0208F71A02082B
:10195000F71A0208F11A02080423FB75BB7B043353
:10196000DBB25B00DAB2AD2300931346012240F2F2
:10197000D771B86801F060FCBDE00523FB75BB7B47
:101980005B00DBB20933DAB2AD23009313460122C8
:1019900040F2D771B86801F04FFCACE00023FB7552
:1019A000574BD3ED727AB2EE047A67EE877AFCEE8B
:1019B000E77AC7ED017ABB8899B2524BD3F8AB31C5
:1019C000F2EE047A07EE103A67EE277AFCEEE77A39
:1019D000C7ED017ABB889BB2AC22019200930B4603
:1019E000012240F2D171B86801F04CFC83E002237F
:1019F000FB75434BD3ED737AB2EE047A67EE877AC8
:101A0000FCEEE77AC7ED017ABB8899B23D4BD3F87B
:101A1000B331F2EE047A07EE103A67EE277AFCEE65
:101A2000E77AC7ED017ABB889BB2AC2201920093A2
:101A30000B46032240F2D371B86801F023FC5AE050
:101A40000123FB752E4BD3ED727AB2EE047A67EE6A
:101A5000877AFCEEE77AC7ED017ABB8899B2294B09
:101A6000D3F8A731F2EE047A07EE103A67EE277A40
:101A7000FCEEE77AC7ED017ABB889BB2AB220192FC
:101A800000930B46002240F2D271B86801F0FAFBD5
:101A900031E00323FB751A4BD3ED737AB2EE047A6F
:101AA00067EE877AFCEEE77AC7ED017ABB8899B2D8
:101AB000144BD3F8AF31F2EE047A07EE103A67EE2A
:101AC000277AFCEEE77AC7ED017ABB889BB2AC229D
:101AD000019200930B46022240F2D471B86801F0E3
:101AE000D1FB08E01F23FB7505E02023FB7502E016
:101AF0002823FB7500BFFB7D18461837BD4680BD07
:101B0000387F00202C81002080B586B002AF0346CC
:101B10003A60FB710B46BB71FB79032B25D0042B7C
:101B200012D0002B36D10723FB73BB791433DBB201
:101B30005B00DAB2AD2300931346022240F2D77164
:101B4000386801F079FB25E00823FB73BB795B0063
:101B5000DBB22933DAB2AD2300931346022240F2FE
:101B6000D771386801F068FB14E00623FB730C4B57
:101B7000D3F8DC3199B20B4BB3F8BB319BB2AB223B
:101B8000019200930B46052240F2D571386801F0AE
:101B900079FB00BFFB7B18461037BD4680BD00BFF8
:101BA000387F00202C81002080B586B002AF03462C
:101BB0003A60FB710B46BB71FB79042B43D801A241
:101BC00052F823F0D91B0208471C0208471C0208E0
:101BD0001D1C0208FB1B02080A23FB73BB791C3384
:101BE000DBB25B00DAB2AD2300931346052240F26C
:101BF000D771386801F020FB25E00B23FB73BB791C
:101C00005B00DBB23933DAB2AD2300931346052211
:101C100040F2D771386801F00FFB14E00923FB7321
:101C20000B4BD3F8D83199B20A4BB3F8BF319BB202
:101C3000AB22019200930B4607224FF4FB613868F8
:101C400001F020FB00BFFB7B18461037BD4680BD6E
:101C5000387F00202C81002080B586B002AF03467B
:101C60003A60FB710B46BB71FB79032B25D0042B2B
:101C700012D0002B36D11123FB73BB792033DBB29A
:101C80005B00DAB2AD2300931346032240F2D77112
:101C9000386801F0D1FA25E01223FB73BB795B00B1
:101CA000DBB24133DAB2AD2300931346032240F294
:101CB000D771386801F0C0FA14E01023FB730C4BA5
:101CC000D3F8E03199B20B4BB3F8BD319BB2AB22E4
:101CD000019200930B46062240F2D671386801F05B
:101CE000D1FA00BFFB7B18461037BD4680BD00BF50
:101CF000387F00202C81002080B584B000AF0346DF
:101D00003A60FB710B46BB71FB79122B1FD0132B72
:101D100038D0112B45D1BB79022B00D041E0AA234A
:101D2000482240F2D971386801F0D6FA386801F0DB
:101D300037F80346002B03D01C4B01221A7002E037
:101D40001A4B00221A702423FB7300BF29E0BB79D1
:101D50000E2B02D00F2B0AD023E0AA23492240F2F7
:101D6000DE71386801F0B8FA2523FB7309E0AA2375
:101D70004A2240F2DF71386801F0AEFA2623FB7385
:101D800000BF0EE0BB79102B00D009E0AA234B2244
:101D90004FF4FC61386801F09FFA2723FB7300BF02
:101DA00000BFFB7B18461037BD4680BDFC1E0020DF
:101DB00080B485B000AF03460A46FB711346BB7181
:101DC000FB79092B53D0092B0CDC032B1BD0032BE5
:101DD00003DC012BC0F2AB8022E0062B2DD0072BB9
:101DE00038D0A4E00C2B69D00C2B04DC0A2B4BD090
:101DF0000B2B56D09BE00E2B7AD00E2B6BDBFF2BE0
:101E000000F0838093E0BB79002B02D0042B03D039
:101E10008DE01D23FB7302E01E23FB7300BF86E0F1
:101E2000BB79002B02D0042B03D080E00423FB738A
:101E300002E00523FB7300BF79E0BB79002B02D0E1
:101E4000042B03D073E00A23FB7302E00B23FB7324
:101E500000BF6CE0BB79002B02D0042B03D066E0FE
:101E60000C23FB7302E00D23FB7300BF5FE0BB7923
:101E7000002B02D0042B03D059E00E23FB7302E0A9
:101E80000F23FB7300BF52E0BB79002B02D0042B61
:101E900003D04CE01323FB7302E01423FB7300BF59
:101EA00045E0BB79002B02D0042B03D03FE0152383
:101EB000FB7302E01623FB7300BF38E0BB79002BF5
:101EC00002D0042B03D032E01723FB7302E0182367
:101ED000FB7300BF2BE0BB79002B02D0042B03D097
:101EE00025E01923FB7302E01A23FB7300BF1EE0F9
:101EF000BB79002B02D0042B03D018E01B23FB730B
:101F000002E01C23FB7300BF11E0BB790C2B07D050
:101F10000D2B08D00B2B00D008E02123FB7305E02C
:101F20002223FB7302E02323FB7300BF00BFFB7B74
:101F300018461437BD465DF8047B704780B584B001
:101F400000AF3B600346FB710B46BB7113467B71D0
:101F5000FB79072B0DDC062B20DA032B04DC012B8D
:101F60001CDA002B11D046E0042B20D0052B27D003
:101F700041E00E2B02DC092B10DA2AE0112B3ADBB0
:101F8000132B2FDDFF2B09D035E07979BB793A6827
:101F90001846FFF7ADFC0346FB732DE0BA79FB79D9
:101FA00011461846FFF704FF0346FB7324E07979D6
:101FB000BB793A681846FFF7A7FD0346FB731BE0A1
:101FC0007979BB793A681846FFF7EEFD0346FB7353
:101FD00012E07979BB793A681846FFF73DFE03466F
:101FE000FB7309E0B979FB793A681846FFF784FE7C
:101FF0000346FB7300E000BFFB7B18461037BD466D
:1020000080BD00BF80B500AF024800F0F7FD00BF03
:1020100080BD00BF4120020880B582B000AF0346FA
:10202000FB710B46BB7113467B717A79B979FB79E9
:102030001846FFF7F3FA00BF0837BD4680BD00BF62
:1020400080B582B000AF0346FB710B46BB711346EF
:102050007B717A79B979FB791846FFF777FB00BF76
:102060000837BD4680BD00BF80B582B000AF0346D3
:10207000FB710B46BB7113467B717A79B979FB7999
:102080001846FFF78FFB00BF0837BD4680BD00BF75
:1020900080B582B000AF0346FB71FB79184600F0B3
:1020A0005FFB034618460837BD4680BD80B582B049
:1020B00000AF0346FB71FB79184600F06FFB034647
:1020C00018460837BD4680BD80B582B000AF786045
:1020D0000B46FB701346BB70BA78FB7819467868DC
:1020E000FFF7B0FB00BF0837BD4680BD80B582B0AA
:1020F00000AF78600B46FB701346BB70BA78FB7874
:1021000019467868FFF7B8FB00BF0837BD4680BDA9
:1021100080B500AF07F0D0FD00BF80BD80B582B0B4
:1021200000AF0346FB7140220021AA483EF046FD65
:10213000FB794B2B00F2B48001A252F823F000BFD0
:102140007122020875220208792202087D22020803
:102150008122020885220208892202088D220208B3
:10216000A1220208A1220208A1220208A12202083B
:10217000A1220208A1220208A1220208A12202082B
:10218000A1220208A1220208A1220208A12202081B
:10219000A1220208A1220208A1220208A12202080B
:1021A000A1220208A1220208A1220208A1220208FB
:1021B000A1220208A1220208A1220208A1220208EB
:1021C000A1220208A1220208A1220208A1220208DB
:1021D000A1220208A1220208A1220208A1220208CB
:1021E000A1220208A1220208A1220208A1220208BB
:1021F000A1220208A1220208A1220208A1220208AB
:10220000A1220208A1220208A1220208A12202089A
:10221000A1220208A1220208A1220208A12202088A
:10222000A1220208A1220208A1220208A12202087A
:10223000A1220208A1220208A1220208A12202086A
:10224000A1220208A1220208A1220208A12202085A
:10225000A1220208A1220208A1220208A12202084A
:102260009122020895220208992202089D22020862
:10227000594BAAE0594BA8E0594BA6E0594BA4E0B2
:10228000594BA2E0594BA0E0594B9EE0594B9CE0C2
:10229000594B9AE0594B98E0594B96E0594B94E0D2
:1022A000FB79072B21D9FB79272B1ED8FB7903F06B
:1022B0000103002B0CD0FB79093BDA0F13445B10B0
:1022C00001331A46504943487DF0FEFF414B7CE004
:1022D000FB79083BDA0F13445B1001331A464B4974
:1022E0003C487DF0F1FF3B4B6FE0FB79272B21D978
:1022F000FB79372B1ED8FB7903F00103002B0CD0A0
:10230000FB79293BDA0F13445B1001331A4640492D
:1023100030487DF0D9FF2F4B57E0FB79283BDA0F8F
:1023200013445B1001331A463A492A487DF0CCFF2A
:10233000284B4AE0FB79372B21D9FB793F2B1ED85C
:10234000FB7903F00103002B0CD0FB79393BDA0F4A
:1023500013445B1001331A462F491E487DF0B4FF29
:102360001C4B32E0FB79383BDA0F13445B1001332E
:102370001A462A4917487DF0A7FF164B25E0FB793E
:102380003F2B21D9FB79472B1ED8FB7903F00103A2
:10239000002B0CD0FB79413BDA0F13445B10013367
:1023A0001A461F490B487DF08FFF0A4B0DE0FB7961
:1023B000403BDA0F13445B1001331A4619490548B4
:1023C0007DF082FF034B00E0174B18460837BD46EF
:1023D00080BD00BFA81E00201C8D0A08308D0A0891
:1023E000448D0A08588D0A086C8D0A08808D0A08E9
:1023F000948D0A08A88D0A08B88D0A08D08D0A089D
:10240000EC8D0A08088E0A08208E0A08348E0A0805
:10241000488E0A08608E0A08788E0A088C8E0A0890
:10242000A08E0A08B88E0A08D08E0A0880B485B03B
:1024300000AF0346FB710023FB73FB794B2B00F2CB
:10244000BC8001A252F823F0792502087F250208FA
:10245000852502088B250208BB2502089125020864
:10246000972502089D250208BB250208BB25020806
:10247000BB250208BB250208BB250208BB250208B4
:10248000BB250208BB250208BB250208BB250208A4
:10249000BB250208BB250208BB250208BB25020894
:1024A000BB250208BB250208BB250208BB25020884
:1024B000BB250208BB250208BB250208BB25020874
:1024C000BB250208BB250208BB250208BB25020864
:1024D000BB250208BB250208BB250208BB25020854
:1024E000BB250208BB250208BB250208BB25020844
:1024F000BB250208BB250208BB250208BB25020834
:10250000BB250208BB250208BB250208BB25020823
:10251000BB250208BB250208BB250208BB25020813
:10252000BB250208BB250208BB250208BB25020803
:10253000BB250208BB250208BB250208BB250208F3
:10254000BB250208BB250208BB250208BB250208E3
:10255000BB250208BB250208BB250208BB250208D3
:10256000BB250208BB250208A3250208A9250208ED
:10257000AF250208B52502080023FB731EE00123E6
:10258000FB731BE00223FB7318E00323FB7315E0CE
:102590000423FB7312E00523FB730FE00623FB7398
:1025A0000CE00723FB7309E00823FB7306E0092313
:1025B000FB7303E00A23FB7300E000BFFB7B1846BC
:1025C0001437BD465DF8047B704700BF80B485B00A
:1025D00000AF0346FB710023FB73FB79282B79D8EE
:1025E00001A252F823F000BF8D26020893260208AC
:1025F000992602089F260208D5260208D526020839
:10260000A5260208D5260208D5260208B12602080A
:10261000D5260208D5260208D5260208D5260208A6
:10262000D5260208D5260208AB260208D5260208C0
:10263000D5260208D5260208D5260208D526020886
:10264000D5260208D5260208D5260208D526020876
:10265000D5260208D5260208D5260208D526020866
:10266000D5260208D5260208D5260208D526020856
:10267000D5260208D5260208B7260208BD2602087C
:10268000C3260208C9260208CF2602080123FB73CD
:1026900021E00023FB731EE00323FB731BE00223F6
:1026A000FB7318E00423FB7315E00523FB7312E0B2
:1026B0000623FB730FE00723FB730CE00823FB7377
:1026C00009E00923FB7306E00A23FB7303E00B23F5
:1026D000FB7300E000BFFB7B18461437BD465DF876
:1026E000047B704780B485B000AFB9607A603B600E
:1026F0000346FB73BB68002B05D07B68002B02D020
:102700003B68002B01D1002322E0FB7B0B2B01D97E
:1027100000231DE0FA7B114913465B0013440B4470
:102720001A78BB681A70FA7B0C4913465B00134495
:102730000B4401331A787B681A70FA7B07491346F9
:102740005B0013440B4402331A783B681A70012370
:1027500018461437BD465DF8047B7047D8B50B08A2
:1027600080B483B000AF0346FB71FB795B09DBB239
:10277000094A7A3352F82320FB7903F01F0322FA27
:1027800003F3DBB203F00103DBB218460C37BD469E
:102790005DF8047B704700BF387F002080B584B0AF
:1027A00000AF0346FB7100204EF09AF8F860FB7909
:1027B0001846FFF70BFF0346FB72FB7A0F4A52F8ED
:1027C0002330002B10D0FB7A0C4A52F82330FA68E1
:1027D000D31AB3F5E16F05DDFB791846FFF7C0FFAB
:1027E000034606E0002304E0FB791846FFF7B8FF34
:1027F000034618461037BD4680BD00BF647A0020EE
:1028000080B483B000AF0346FB71FB795B09DBB298
:1028100018460B4A7A3352F82330FA7902F01F0235
:10282000012101FA02F21A43054900F17A0341F845
:10283000232000BF0C37BD465DF8047B704700BF06
:10284000387F002080B483B000AF0346FB71FB7972
:102850005B09DBB218460B4A7A3352F82330FA7917
:1028600002F01F02012101FA02F2D2431A40054987
:1028700000F17A0341F8232000BF0C37BD465DF814
:10288000047B7047387F002080B582B000AF0346DC
:102890000A46FB711346BB71FB791846FFF760FFD0
:1028A0000346002B0ED1094B5B6BBA79012101FA6B
:1028B00002F2D2431340054A5363BB79184600F035
:1028C000E1F900E000BF0837BD4680BD647A002012
:1028D00080B582B000AF0023FB710EE0FB790A4A9D
:1028E00012F81300FB79084A5B0013445B78194621
:1028F000FFF7CAFFFB790133FB71FB790B2BEDD995
:1029000000BF0837BD4680BDFCB50B0880B586B05A
:1029100000AF786000204DF0E3FF38610023FB75C5
:102920000023FB730023BB7300237B737B68002BA6
:1029300028D0174B1B683A69D31A002B24DD144AA0
:102940003B691360FFF7C4FF0FE0FB7B3969184652
:1029500000F020F80346002B04D0B87B797B7B681D
:1029600000229847FB7D0133FB7507F10D0307F14A
:102970000E0207F10F01F87DFFF7B4FE0346002BAE
:10298000E3D102E000BF00E000BF1837BD4680BDC4
:10299000E81E002080B483B000AF03463960FB71AD
:1029A000134B5A6BFB7922FA03F303F00103002B5C
:1029B0000AD1104B1A68FB7922FA03F303F00103E2
:1029C000002B01D100230CE0FB79094A52F8233097
:1029D0003A68D31A40F207729342D4BF012300230E
:1029E000DBB218460C37BD465DF8047B704700BF6C
:1029F000647A0020F81E002080B584B000AF034642
:102A00003960FB711CF00AFD0346FB81FB89002B3A
:102A100001D0FB8901E04FF4E163BB60FB79084A18
:102A200052F823303A68D31A1A46BB689A428CBFD0
:102A300001230023DBB218461037BD4680BD00BF1E
:102A4000647A002080B485B000AF0346B9607A6034
:102A5000FB73BB68002B20D01D4B1A6BFB7B22FA4B
:102A600003F303F00103002B08D0FB7B184A52F854
:102A700023307A68D31AB3F5E16F22DBFB7B14496C
:102A80007A6841F82320124B1B6BFA7B012101FA73
:102A900002F213430E4A136313E00D4B1A6BFB7BD8
:102AA00022FA03F303F00103002B0BD0084B1B6B3E
:102AB000FA7B012101FA02F2D2431340044A136364
:102AC00000E000BF1437BD465DF8047B704700BFCF
:102AD000647A002080B586B000AF0346B9607A60A2
:102AE000FB73FB7B1846FFF771FD0346FB75FB7B11
:102AF000272B5AD801A252F823F000BF9D2B0208C1
:102B00009D2B02089D2B02089D2B0208AB2B02086F
:102B1000AB2B02089D2B0208AB2B0208AB2B020843
:102B20009D2B0208AB2B0208AB2B0208AB2B020833
:102B3000AB2B0208AB2B0208AB2B02089D2B020823
:102B4000AB2B0208AB2B0208AB2B0208AB2B020805
:102B5000AB2B0208AB2B0208AB2B0208AB2B0208F5
:102B6000AB2B0208AB2B0208AB2B0208AB2B0208E5
:102B7000AB2B0208AB2B0208AB2B0208AB2B0208D5
:102B8000AB2B0208AB2B0208AB2B02089D2B0208D3
:102B90009D2B02089D2B02089D2B0208FB7D7A6865
:102BA000B9681846FFF74EFF00E000BF00BF1837B6
:102BB000BD4680BD80B582B000AF00204DF090FED4
:102BC00038600023FB7112E0FB791846FFF7C8FD5F
:102BD0000346002B14BF01230023DBB21946FB7907
:102BE0003A681846FFF776FFFB790133FB71FB79F2
:102BF000282BE9D900BF0837BD4680BD80B582B01B
:102C000000AF7860104BDB6A002B13D0FFF7D2FFC8
:102C10000E4B1B78002B0CBF01230023DBB21846A0
:102C200000F016F8094B1B78002B06D1074B012248
:102C30001A7002E0054B00221A707868FFF766FEF2
:102C400000BF0837BD4680BDE4840020EC1E002094
:102C500080B483B000AF7860094B012283F838203C
:102C60007B68002B06D0064B5A6B054B1B6B13433E
:102C7000034A536300BF0C37BD465DF8047B7047C1
:102C8000647A002080B483B000AF0346FB71FB7907
:102C9000044A002142F8231000BF0C37BD465DF8FE
:102CA000047B7047647A002080B500AF3022002199
:102CB00002483DF083FF00BF80BD00BF647A002062
:102CC00080B582B000AF7860786829F001FC00BF61
:102CD0000837BD4680BD00BF80B582B000AF7860C8
:102CE000786829F001FC00BF0837BD4680BD00BFF1
:102CF00080B582B000AF7860786829F007FC00BF2B
:102D00000837BD4680BD00BF80B582B000AF786097
:102D100039603868FFF7ECFF7868FFF7DDFF00BF28
:102D20000837BD4680BD00BF80B582B000AF786077
:102D30000020FFF7D1FF7868FFF7DAFF00BF083700
:102D4000BD4680BD80B483B000AF78600B46FB7099
:102D50007B68002B06D07B6808221A807B68FA7893
:102D60001A7200E000BF0C37BD465DF8047B704767
:102D700080B483B000AF78600B467B8013467B70D5
:102D80007B68002B06D07B687A885A807B687A78CB
:102D90005A7200E000BF0C37BD465DF8047B7047F7
:102DA00080B483B000AF78607B68002B01D1002332
:102DB00006E07B685B79012B0CBF01230023DBB2AB
:102DC00018460C37BD465DF8047B7047F0B593B0EC
:102DD00004AF03463960FB7100204DF081FD0346CE
:102DE000FB60FB79482B0CBF01230023DBB27B6324
:102DF000F968FB797A6B184600F02AF90346002B34
:102E00002FD0FA68FB791146184600F045F907F112
:102E1000100207F10C03114618464DF0D9FB294862
:102E20003EF0D4FDFB791846FFF778F906467B6A39
:102E300003F26C743B6A5D1CFB69BA697969386995
:102E400003900291019200932B46224631461E4880
:102E50003EF0BCFD1D483EF0B9FDFB7918462FF051
:102E600039FDFB79184600F087FAF968FB797A6B2F
:102E7000184600F0B7FA0346002B1FD0FB7918461E
:102E800000F0BAF80346002B02D07B6B002B06D073
:102E9000FA68FB791946386800F0E0FA0EE0F96844
:102EA000FB797A6B184600F0BDFA0346002B05D07B
:102EB000FA68FB791946386800F0D0FA00BF3C3751
:102EC000BD46F0BDE08E0A08F88E0A08308F0A0869
:102ED00080B586B000AF03463960FB7100204DF02D
:102EE000FFFC7861FB79482B0CBF01230023DBB288
:102EF0003B61FB791846FFF799FA0346FB73FB7BAE
:102F0000184600F05FF80346002B03D0FB79184603
:102F100000F0CCFAFB79184600F0E0FA0346002BEB
:102F200018D0FB793A697969184600F0F3FA03463C
:102F3000002B0FD0FB79184600F074F80346002BE5
:102F400002D03B69002B05D0FB797A6919463868B5
:102F500000F000FB00BF1837BD4680BD80B582B0D1
:102F600000AF78600B46FB707868FFF719FF0346E7
:102F7000002B05D0FB7879681846FFF727FF04E09F
:102F8000FB7879681846FFF7A3FF00BF0837BD46F6
:102F900080BD00BF80B584B000AFF8600B467A609A
:102FA000FB727B68002B14BF01230023DBB21A469F
:102FB000FB7A1946F86818F0B7F803461846103738
:102FC000BD4680BD80B483B000AF0346FB71094BA2
:102FD0001A68FB7922FA03F303F00103002B14BFF4
:102FE00001230023DBB218460C37BD465DF8047B95
:102FF000704700BFF41E002080B483B000AF0346CA
:10300000FB71FB79064AD35C002B14BF012300231C
:10301000DBB218460C37BD465DF8047B704700BF35
:103020001C7C002080B483B000AF0346FB71FB79A9
:10303000064AD35C002B14BF01230023DBB21846E1
:103040000C37BD465DF8047B704700BFA07A0020B6
:1030500080B485B000AF0346B9607A60FB73FA7B39
:103060000C4913465B0013449B000B4403F5737338
:103070001B68BA68D31AB3F5E16F02DC7B68002BDA
:1030800001D0012300E0002318461437BD465DF847
:10309000047B7047E484002080B582B000AF034613
:1030A0003960FB71FA791E4913465B0013440B44E7
:1030B00003F5397300221A70FA79194913465B0037
:1030C00013449B000B4403F2CA33FA791A70FA795D
:1030D000134913465B0013449B000B4403F57373C1
:1030E0003A681A60FA790E4913465B0013440B44A0
:1030F00003F2E6231978FA79094813465B00134472
:10310000034403F2E5231B78994204D0FB79396824
:10311000184600F07FFA00BF0837BD4680BD00BFEB
:10312000E484002080B483B000AF03460A46FB71FC
:103130001346BB71FA79084913465B0013449B00A0
:103140000B4403F2C933BA791A7000BF0C37BD467D
:103150005DF8047B704700BFE484002090B482B027
:1031600000AF0446084611461A462346FB71034643
:10317000BB800B467B801346BB71FA79124913461C
:103180005B0013449B000B4403F57473BA881A80E8
:10319000FA790D4913465B0013449B000B4403F27C
:1031A000D2337A881A80FA79074913465B001344B0
:1031B0009B000B4403F2C933BA791A7000BF083779
:1031C000BD4690BC704700BFE484002080B582B04B
:1031D00000AF78600B46FB701346BB707868FFF752
:1031E000DFFD0346002B05D0BA78FB781146184660
:1031F000FFF798FF00BF0837BD4680BD80B584B09B
:1032000000AFF860084611461A460346FB720B46AB
:103210003B811346FB80F868FFF7C2FD0346002B95
:1032200005D03B7EFA883989F87AFFF797FF00BF0F
:103230001037BD4680BD00BF80B582B000AF78605A
:10324000084611461A4603467B800B467B701346A0
:103250003B707A787B8819467868FFF789FD3A7C5D
:103260003B7819467868FFF7B1FF3B7819467868D4
:10327000FFF774FE786800F051F800BF0837BD46CC
:1032800080BD00BF80B586B002AFF8600846114629
:103290001A4603467B810B467B721346FB807B8973
:1032A00000221946F868FFF763FD388BFA88797AAF
:1032B0003B7F00930346F868FFF7A0FF7B7A19462F
:1032C000F868FFF74BFE7B7A1946F86800F038F88B
:1032D00000BF1037BD4680BD80B582B000AF7860BA
:1032E000084611461A4603467B800B467B70134600
:1032F0003B707B88002219467868FFF739FD3A78E1
:103300007B7819467868FFF761FF7B781946786803
:10331000FFF724FE00BF0837BD4680BD80B483B0F0
:1033200000AF78607B68002B03D07B6800221A71A5
:1033300000E000BF0C37BD465DF8047B704700BF5E
:1033400080B582B000AF78600B46FB70094BB3F8D4
:10335000C1319BB21A46FB7842FA03F303F0010332
:10336000002B02D17868FFF7D9FF00BF0837BD46B0
:1033700080BD00BF2C81002080B483B000AF034625
:10338000FB71FA79164913465B0013440B4403F5AD
:1033900039731B78002B1DD1FA79114913465B0054
:1033A00013440B4403F5397301221A70FA790C495E
:1033B00013465B0013440B4403F2E5231B780133EF
:1033C000D8B2074913465B0013440B4403F2E523CC
:1033D00002461A7000BF0C37BD465DF8047B70478B
:1033E000E484002080B586B000AF0346B9607A60FF
:1033F000FB73FB7B184600F0F9F87861BA687B69CB
:10340000D31A0A2B06DCBA687B699A4202D07B6821
:10341000002B01D0012300E0002318461837BD46D9
:1034200080BD00BF80B584B000AF0346B9607A604C
:10343000FB73FB7B184600F0D9F80246BB689B1A69
:10344000B3F5E16F02DC7B68002B01D0012300E0C3
:10345000002318461037BD4680BD00BF80B584B03C
:1034600000AFF8600B467A60FB72FB68002B16D049
:10347000FB6801221A71FB68FA7A9A71FA7A0A4992
:1034800013465B0013440B4403F2E5231A78FB68F0
:10349000DA71FB7A7968184600F0BCF800E000BFEA
:1034A0001037BD4680BD00BFE484002080B483B0E7
:1034B00000AF0346FB71FA79074913465B001344DA
:1034C0000B4403F5397301221A7000BF0C37BD4657
:1034D0005DF8047B704700BFE484002080B483B0B3
:1034E00000AF0346FB71FA79094913465B001344A8
:1034F0000B4403F539731B78002B14BF0123002301
:10350000DBB218460C37BD465DF8047B704700BF40
:10351000E484002080B586B000AF0346B9607A60CD
:10352000FB73FB7B184600F08BF87861BA687B6907
:10353000D31A0A2B06DCBA687B699A4202D07B68F0
:10354000002B01D0012300E0002318461837BD46A8
:1035500080BD00BF80B584B000AFF8600B467A60D4
:10356000FB72FB68002B29D0FB7A7968184600F0C3
:103570007BF8FB6801221A71FA7A124913465B0044
:1035800013440B4403F5397300221A70FA7AF97A5E
:103590000C480B465B000B44034403F2E523187808
:1035A000084913465B0013440B4403F2E62302462A
:1035B0001A70FB7A184600F007F800E000BF1037D9
:1035C000BD4680BDE484002080B483B000AF0346D4
:1035D000FB71FB79044A0021D15400BF0C37BD4672
:1035E0005DF8047B704700BF1C7C002080B483B072
:1035F00000AF0346FB71FB79054A12339B0013446D
:103600005B6818460C37BD465DF8047B704700BF09
:103610001C7C002080B483B000AF03463960FB718E
:10362000FB79064A12339B0013443A685A6000BF84
:103630000C37BD465DF8047B704700BF1C7C002042
:1036400080B483B000AF0346FB71FB79054A1233A7
:103650009B0013445B6818460C37BD465DF8047B3D
:10366000704700BFA07A002080B483B000AF03464B
:103670003960FB71FB79064A12339B0013443A68A8
:103680005A6000BF0C37BD465DF8047B704700BF31
:10369000A07A002080B582B000AF78600B46FB7046
:1036A0000A4B1A68FB7822FA03F303F00103002B9C
:1036B00007D1FB78012219467868FFF76BFC0123DC
:1036C00000E0002318460837BD4680BDF01E0020EC
:1036D00080B584B000AF78600B46FB701346BB70BA
:1036E000BB781846FEF772FF0346FB73FB7819465A
:1036F0007868FFF727FBFB7B19467868FFF7CAFF5E
:10370000034618461037BD4680BD00BF80B582B065
:1037100000AF78600B46FB700A4B1A68FB7822FA00
:1037200003F303F00103002B07D1FB7800221946B5
:103730007868FFF72FFC012300E0002318460837C4
:10374000BD4680BDF41E002080B584B000AF786017
:103750000B46FB701346BB70BB781846FEF736FF6E
:103760000346FB73FB7819467868FFF7EBFAFB7B9F
:1037700019467868FFF7CAFF034618461037BD465A
:1037800080BD00BF80B582B000AF78600B46FB7093
:103790001346BB700A4B1A68BB7822FA03F303F096
:1037A0000103002B07D0FB78002219467868FFF749
:1037B000F1FB012300E0002318460837BD4680BD19
:1037C000F81E002080B584B000AF78600B46FB7017
:1037D0001346BB70BB781846FEF7F8FE0346FB7332
:1037E000FB7819467868FFF7ADFAFA7BFB7B194640
:1037F0007868FFF7C7FF034618461037BD4680BDFF
:1038000080B487B000AFF860B9607A6000237B6154
:103810000CE07B699B00BA6813447A699200F968EE
:103820000A4412681A607B6901337B617A697B689C
:103830009A42EEDB00BF1C37BD465DF8047B704743
:1038400080B487B000AFF860B9607A6000237B6114
:1038500010E07B699B00FA6813441A687B699B003F
:10386000B9680B441B689A4201D0002307E07B69CA
:1038700001337B617A697B689A42EADB012318464F
:103880001C37BD465DF8047B704700BF80B483B031
:1038900000AF0346FB71FB795B09DBB21A46094BAB
:1038A00053F82220FB7903F01F0322FA03F3DBB263
:1038B00003F00103DBB218460C37BD465DF8047B0C
:1038C000704700BF041F002080B483B000AF0346E0
:1038D000FB71FB795B09DBB218461A46094B53F8BA
:1038E0002230FA7902F01F02012101FA02F2134399
:1038F000044A42F8203000BF0C37BD465DF8047B17
:10390000704700BF041F002080B483B000AF03469F
:10391000FB71FB795B09DBB218461A46094B53F879
:103920002230FA7902F01F02012101FA02F2D24399
:103930001340044A42F8203000BF0C37BD465DF802
:10394000047B7047041F002080B582B000AF03469F
:103950000A46FB711346BB71FB791846FEF7A6FBBE
:103960000346002B0DD1BB791846FFF78FFF0346A6
:10397000002B06D0BB791846FFF7C6FF034B002289
:10398000DA6200BF0837BD4680BD00BFE484002076
:1039900080B500AF06211020FFF7D6FF05210620D5
:1039A000FFF7D2FF07210920FFF7CEFF01210020FA
:1039B000FFF7CAFF00210120FFF7C6FF0321022005
:1039C000FFF7C2FF02210320FFF7BEFF4921252098
:1039D000FFF7BAFF4A212620FFF7B6FF4B21272029
:1039E000FFF7B2FF00BF80BD80B582B000AF0023FB
:1039F000FB711020FEF75AFB0346002B13D0012069
:103A0000FFF75EF9804BB3F8C1319BB29B099BB2C3
:103A100003F00103002B00F0EA800123FB71062074
:103A2000FFF752FFE3E00620FEF740FB0346002BC2
:103A300013D00120FFF744F9734BB3F8C1319BB2A7
:103A40005B099BB203F00103002B00F0D08001233F
:103A5000FB710520FFF738FFC9E00920FEF726FBC0
:103A60000346002B13D00120FFF72AF9664BB3F869
:103A7000C1319BB2DB099BB203F00103002B00F0C4
:103A8000B6800123FB710720FFF71EFFAFE0002087
:103A9000FEF70CFB0346002B13D00120FFF710F9B3
:103AA000594BB3F8C1319BB25B089BB203F00103E1
:103AB000002B00F09C800123FB710120FFF704FF25
:103AC00095E00120FEF7F2FA0346002B11D0012009
:103AD000FFF7F6F84C4BB3F8C1319BB203F001038A
:103AE000002B00F084800123FB710020FFF7ECFE27
:103AF0007DE00220FEF7DAFA0346002B12D0012007
:103B0000FFF7DEF8404BB3F8C1319BB2DB089BB244
:103B100003F00103002B6AD00123FB710320FFF7A0
:103B2000D3FE64E00320FEF7C1FA0346002B12D057
:103B30000120FFF7C5F8344BB3F8C1319BB29B08A5
:103B40009BB203F00103002B51D00123FB71022033
:103B5000FFF7BAFE4BE02520FEF7A8FA0346002B3C
:103B60000DD00120FFF7ACF8284B93F8E231FF2B82
:103B70003DD00123FB714920FFF7A6FE37E0262048
:103B8000FEF794FA0346002B0DD00120FFF798F8BA
:103B90001E4B93F8E431FF2B29D00123FB714A20FF
:103BA000FFF792FE23E02720FEF780FA0346002B62
:103BB0000DD00120FFF784F8144B93F8E631FF2B6A
:103BC00015D00123FB714B20FFF77EFE0FE00F4B5A
:103BD0009B6A012B05D10120FFF772F80123FB71CD
:103BE00005E00020FFF76CF80020FFF781F8FB7973
:103BF000002B14BF01230023DBB21846FFF778F82F
:103C000000BF0837BD4680BD2C810020E484002021
:103C100080B500AF2C4B93F8E231FF2B12D02A4B2A
:103C2000B3F878321A46284B93F8E23142FA03F39C
:103C300003F00103002B05D10E2212212348FEF7C9
:103C400043FA04E00E2212212048FEF74FFA1E4BE1
:103C500093F8E431FF2B12D01B4BB3F878321A469D
:103C6000194B93F8E43142FA03F303F00103002BFC
:103C700005D10F2212211648FEF726FA04E00F2282
:103C800012211348FEF732FA0F4B93F8E631FF2B5F
:103C900012D00D4BB3F878321A460B4B93F8E6313D
:103CA00042FA03F303F00103002B05D11022132184
:103CB0000848FEF709FA04E0102213210548FEF730
:103CC00015FA00BF80BD00BFE48400204C7A0020BC
:103CD000547A00205C7A002080B500AFFFF758FED0
:103CE000FFF782FE00BF80BD80B500AF032203490D
:103CF0000348FFF785FD00BF80BD00BF101F0020F7
:103D0000041F002080B500AF032206490648FFF7D4
:103D100097FD0346002B0CBF01230023DBB218469E
:103D200080BD00BF101F0020041F002080B582B09E
:103D300000AF7860074A7B68D3627B68012B04D1AF
:103D4000054B00221A60FFF7CFFF00BF0837BD46C2
:103D500080BD00BFE4840020001F002090B585B026
:103D600000AF7860AC4BD3F83032052B04D9AA4BA6
:103D7000D3F83032072B08D94FF47A703CF0A0F812
:103D80004FF47A703CF09CF8ECE7A34BD3F8303258
:103D9000FB73A2483DF01AFE9F4BD3F83032194610
:103DA0009F483DF013FE9F483DF010FE64203CF01C
:103DB00087F8FB7B0021184600F01CFC9A4802F0B3
:103DC00081FD9A4804F050FD01F0CAFA984B1A6838
:103DD000531C97490B60974B82FB0334131919113D
:103DE000D317C91A0B461B015B1A5B00D11A0029B5
:103DF00007D18F4B1968904B1B781A468F483DF0BE
:103E0000E5FD05F08BFC0346184606F013FA8A4BD5
:103E10001B78002B0BD18A483DF0D8FD04F0F2FD51
:103E200088483DF0D3FD844B01221A7001E004F074
:103E30002BFD854800F0F8F906F03CFB824BD3EDF2
:103E4000727A9FED827AF4EE477AF1EE10FA0AD098
:103E50007D4BD3ED737A9FED7D7AF4EE477AF1EEE8
:103E600010FA40F0A98001F0D7FAB860BB68002BC7
:103E7000C0F28B80BB68182B00F38780724BD3EDA8
:103E8000727A9FED727AF4EE477AF1EE10FA38D139
:103E9000614ABB6898339B0013441B68DFED6B7A63
:103EA00007EE103AB4EE677AF1EE10FA29D05A4ACA
:103EB000BB6898339B0013441B6807EE903AF5EEFD
:103EC000407AF1EE10FA1CD0534ABB6898339B003D
:103ED00013441B685C4AC2F8C83150483DF076FD77
:103EE000594BD3F8C8311846FCF75CFE03460C4624
:103EF0001A462346B96856483DF068FD49483DF0EA
:103F000065FD514BD3ED737A9FED507AF4EE477A0D
:103F1000F1EE10FA4FD1404ABB68B0339B00134416
:103F20005B68DFED4A7A07EE103AB4EE677AF1EE9D
:103F300010FA40D0384ABB68B0339B0013445B682A
:103F400007EE903AF5EE407AF1EE10FA33D0324AAD
:103F5000BB68B0339B0013445B683B4AC2F8CC316A
:103F60002E483DF033FD384BD3F8CC311846FCF7E2
:103F700019FE03460C461A462346B96835483DF0FB
:103F800025FD28483DF022FD15E033483DF01EFD9B
:103F9000324B1B68002B03D0304B1B689B6801E041
:103FA0004FF0FF33BA6819462D483DF00FFD1D480C
:103FB0003DF00CFD00E000BF01F096FA01F0BEFB01
:103FC00006F0A0FBFEF7A4F8FA7B134BD3F83032CF
:103FD0009A420ED0104BD3F83032FB7300F040FB06
:103FE000FB7B0121184600F005FB4FF47A703BF093
:103FF00067FF1C4B1B780133DAB21A4B1A70194B4E
:104000001B781E2B7FF6E2AE164B00221A70112091
:104010002AF05EFDDAE600BF2C810020388F0A0806
:104020004C8F0A08748F0A0861530208159B020816
:10403000B01F002089888888B41F00207C8F0A0860
:10404000948F0A08B08F0A08387F002000FEFF46D0
:10405000C88F0A08F48F0A0820900A0828810020D7
:1040600034900A08B51F002080B586B004AF002147
:104070004FF4805038F0B4FE0246194B1A60184BCA
:104080001B68002B1FD0174B7B60154B1B681E2233
:104090000392092202924FF480520192009300236E
:1040A000114A124978683BF045FD38603B68002BA7
:1040B0000BD00F483DF08AFC094B1B68184638F0BE
:1040C00029FF012308E0012306E07B68002B02D0D2
:1040D00078683BF073FD002318460837BD4680BD65
:1040E000AC1F00201C1F00205D3D020854900A08F0
:1040F0005C900A0880B582B000AF1C483CF01CF808
:1041000078607B68002B09D119483DF05FFC1948A5
:104110003DF05CFC18483DF059FC1FE078683BF02E
:1041200097FD38603B68002B0ED114483DF04EFCE3
:1041300013483DF04BFC10483DF048FC114B1B6808
:10414000184638F0E7FE09E009483DF03FFC3968C1
:104150000D483DF03BFC08483DF038FC00F080FA8B
:10416000002318460837BD4680BD00BF54900A089A
:1041700080900A0894900A08748F0A08388F0A08F9
:10418000B8900A08AC1F0020D4900A0880B487B009
:1041900000AF7860396000237B6139E000233B6128
:1041A0002CE03B699B007A68134493ED007A3B69ED
:1041B00001339B007A681344D3ED007AB4EEE77ABA
:1041C000F1EE10FA17DD3B699B007A6813441B6817
:1041D000FB603B699B007A6813443A6901329200A4
:1041E00079680A4412681A603B6901339B007A6857
:1041F0001344FA681A603B6901333B613B685A1EFD
:104200007B69D21A3B699A42CBDC7B6901337B61C3
:104210003B685A1E7B699A42C0DC00BF1C37BD4612
:104220005DF8047B704700BF80B598B000AF786040
:1042300007F10C034022002118467BF0D1FD4FF01E
:104240000003FB65002387F85B3000237B6534E0C7
:104250007B6D9B007A681344D3ED007A9FED9D7AC5
:10426000F4EE477AF1EE10FA24D07B6D9B007A6869
:104270001344D3ED007AF5EE407AF1EE10FA19D03E
:10428000954B9A6A7B6D22FA03F303F00103002B2E
:1042900010D097F85B305A1C87F85B2019467B6D6D
:1042A0009B007A6813441A688B0007F160010B4485
:1042B000543B1A607B6D01337B657B6D0F2BC7DD33
:1042C00097F85B30002B00F0008197F85B2007F136
:1042D0000C0311461846FFF759FF97F85B3003F0BF
:1042E0000103DBB2002B1FD197F85B305B08DBB218
:1042F000013B9B0007F160021344543B93ED007AAD
:1043000097F85B305B08DBB29B0007F16002134457
:10431000543BD3ED007A37EE277AF0EE006AC7EE11
:10432000267AC7ED177A0AE097F85B305B08DBB2B4
:104330009B0007F160021344543B1B68FB65664B0E
:104340000022DA6200233B654FE03B6D9B007A68F8
:104350001344D3ED007A9FED5F7AF4EE477AF1EEE5
:1043600010FA3FD05C4B9A6A3B6D22FA03F303F0DC
:104370000103002B36D03B6D9B007A68134493ED0C
:10438000007AD7ED177A77EE677AF0EEE77AB2EE39
:10439000047AF4EEC77AF1EE10FA23DD4E4A3B6D53
:1043A000134430331B78042B0CD84B4A3B6D134419
:1043B00030331B780133D9B2474A3B6D1344303355
:1043C0000A461A70444A3B6D134430331B78042B61
:1043D00008D9414BDB6A01213A6D01FA02F213431D
:1043E0003D4AD3623B6D01333B653B6D0F2BACDD2A
:1043F0000023FB6438E0384AFB6C134430331B78ED
:10440000002B2ED0FB6C9B007A681344D3ED007A0E
:104410009FED307AF4EE477AF1EE10FA21D02E4B70
:104420009A6AFB6C22FA03F303F00103002B18D005
:10443000FB6C9B007A68134493ED007AD7ED177AF2
:1044400077EE677AF0EEE77AB2EE047AF4EEC77AA6
:10445000F1EE10FA05D8204AFB6C134430330022E9
:104460001A70FB6C0133FB64FB6C0F2BC3DD1B4B21
:104470001B68002B14D0184BDB6A002B26D0174B7F
:1044800000221A60164B012283F8842715483DF05C
:104490009DFA15483DF09AFA14483DF097FA15E058
:1044A0000D4BDB6A002B11D10C4B01221A600C4B17
:1044B000012283F884270B483DF088FA0C483DF030
:1044C00085FA0A483DF082FA00E000BF6037BD4639
:1044D00080BD00BF00FEFF46080000200000002055
:1044E000E484002004910A0818910A0844910A08FB
:1044F0004C910A0880B582B000AF0C23FB7105F027
:10450000AFF803465D2B02D10C23FB7111E005F0DF
:10451000A7F803465E2B02D10D23FB7109E005F0DD
:104520009FF803465F2B02D10E23FB7101E00C23A1
:10453000FB71FB7918460837BD4680BD80B584B055
:1045400002AF03463960FB71FB79062B0AD10123C8
:10455000009308234E224FF416511F4834F0AAF955
:10456000034635E0FB79072B0AD10123009308238A
:104570004E224FF41651194834F09CF9034627E0B7
:10458000FB79082B0AD10123009308234E224FF414
:104590001651134834F08EF9034619E0FB79052BC8
:1045A0000AD10123009308234E224FF416510D48DF
:1045B00034F080F903460BE00B483DF007FAFB7935
:1045C00019460A483DF002FA09483DF0FFF9002378
:1045D00018460837BD4680BD78910A0884910A08BC
:1045E00090910A089C910A08A8910A08BC910A08AF
:1045F000F0910A0880B582B000AF03463960FB71C4
:10460000FB7939681846FFF799FF0246124B1A608A
:10461000114B1B68002B01D1012318E00E4B1B68C6
:104620000121184634F06EF80B4B1B68184636F023
:104630004DFA094B1B68094A0021184636F01EFA4C
:10464000054B1B680121184636F07EFA00231846F8
:104650000837BD4680BD00BFB81F002080841E0003
:1046600080B500AF094B1B68002B0CD0074B1B68B3
:10467000184636F045FA054B1B68184636F052FAD4
:10468000024B00221A6000BF80BD00BFB81F00208F
:1046900080B582B000AF7860044B1B68796818461B
:1046A00036F0B8F900BF0837BD4680BDB81F0020FE
:1046B00080B584B000AFF860B9607A60054B1868C7
:1046C0007B68BA68F96836F087F8034618461037F1
:1046D000BD4680BDB81F002080B584B000AFF86033
:1046E000B9607A60054B18687B68BA68F96836F07B
:1046F000B1F8034618461037BD4680BDB81F0020EC
:1047000080B582B000AF78603960064B1B683A68AC
:104710007968184636F03CF9034618460837BD4616
:1047200080BD00BFB81F002080B582B000AF034637
:10473000FB71FB79184602F0D9FE00BF0837BD4671
:1047400080BD00BF80B582B000AF7860032004F068
:10475000C3FF0346002B04D003F064FD03F0F8FB15
:1047600001E003F0DBFB062004F0B6FF0346002B5C
:1047700005D07B68012B04D104F088FD01E004F032
:10478000D5FD092004F0A8FF0346002B02D001F05C
:1047900041FF01E001F0A2FF072004F09DFF034666
:1047A000002B02D002F02CFD01E002F0E3FE02201B
:1047B00004F092FF0346002B02D001F045F901E01E
:1047C00001F028F900BF0837BD4680BD80B582B032
:1047D00000AF0346FB71184B93F88837002B01D1CB
:1047E000002325E0144B93F86732FA799A4201D2FC
:1047F00000231DE0114B1B68012B0FD10F4B002232
:104800001A600D4B93F86832184620F06DFE0A4B83
:1048100093F868320121184620F0F8FE08483DF070
:10482000D5F808483DF0D2F807483DF0CFF801230D
:1048300018460837BD4680BDE484002034050020BA
:10484000F8910A0810920A0824920A0880B400AF6E
:10485000024B1846BD465DF8047B7047B02000202F
:1048600080B483B000AF03463A60FB710B46BB7166
:104870003B68002B09D1FA79BB79184992000A44A8
:10488000134400221A70012322E0FA79BB791348FD
:1048900091000144194409780131C8B20F499200CE
:1048A0000A44134402461A70FA79BB790B49920004
:1048B0000A4413441B780A2B09D1FA79BB790749BA
:1048C00092000A44134400221A70012300E00023DE
:1048D00018460C37BD465DF8047B7047BC1F0020AE
:1048E00080B485B000AF03460A4687ED000AFB801E
:1048F0001346BB80FA88BB8813409BB2002B0ED0B6
:10490000FB885B42FB81FB8907EE903AF8EE677A01
:10491000F1EE676A97ED007AC6EE877A08E0FB88C9
:1049200007EE903AF8EE676A97ED007AC6EE877A5E
:10493000B0EE670A1437BD465DF8047B704700BFD0
:1049400080B485B000AF03460A46FB801346BB80A7
:10495000FA88BB8813409BB2002B09D0FB885B42CE
:10496000FB81FB89002B0CBF01230023DBB205E098
:10497000FB88002B0CBF01230023DBB21846143741
:10498000BD465DF8047B704780B582B000AF03463A
:10499000FB710B46BB711346BB80BB88002B0CBF61
:1049A00001230023DBB21A46B979FB791846FFF7D9
:1049B00057FF034618460837BD4680BD90B583B003
:1049C00000AF0446084611461A462346FB710346CB
:1049D000BB710B46BB8013467B807A88BB8811462F
:1049E0001846FFF7ADFF0246B979FB791846FFF785
:1049F00037FF034618460C37BD4690BD80B485B0DE
:104A000000AF0346FB714FF07E53FB6007E0D7ED2C
:104A1000037AB2EE047A67EE877AC7ED037AFB7900
:104A20005A1EFA71002BF2D1FB6807EE903AB0EEF5
:104A3000670A1437BD465DF8047B704780B582B0C5
:104A400000AF03460A46FB8013467B717B7918460C
:104A5000FFF7D4FFF0EE407AFB88B0EE670A4FF420
:104A600070411846FFF73CFFF0EE407AB0EE670A5F
:104A70000837BD4680BD00BF80B483B000AF034699
:104A8000FB80FB8807EE903AF8EE677A9FED067A96
:104A9000C7EE876AF0EE667AB0EE670A0C37BD465D
:104AA0005DF8047B704700BF0000C84280B485B049
:104AB00000AF0346FB80FB8807EE903AB8EE677ABA
:104AC000F2EE046AC7EE267AC7ED037AD7ED037AD1
:104AD0009FED0E7AF4EEC77AF1EE10FA01DD0C4B81
:104AE0000BE0D7ED037AF5EEC07AF1EE10FA02D5BD
:104AF0004FF0000300E0FB6800BF07EE903AB0EE15
:104B0000670A1437BD465DF8047B70470000C84251
:104B10000000C84280B483B000AF03460A46FB8061
:104B20001346BB80FB881A04BB88134418460C3715
:104B3000BD465DF8047B704780B483B000AF034688
:104B40003A60FB710B46BB71FB79032B68D801A25D
:104B500052F823F0654B02088D4B0208BF4B020848
:104B6000F14B02083B68BA791A703B681B78103326
:104B70009B002F4A1A443B685A603B681B789B0095
:104B80002B4A1A443B689A6001234AE0BB79103BE8
:104B9000DAB23B681A703B681B783A339B00244AB0
:104BA00013441A1D3B685A603B681B7838339B00DE
:104BB0001F4A13441A1D3B689A60012331E0BB79F8
:104BC000123BDAB23B681A703B681B7840339B009B
:104BD000174A13441A1D3B685A603B681B783C33E4
:104BE0009B00134A13441A1D3B689A60012318E086
:104BF000BB79163BDAB23B681A703B681B784633C8
:104C00009B000B4A1A443B685A603B681B7844334C
:104C10009B00074A13441A1D3B689A60012300E079
:104C2000002318460C37BD465DF8047B704700BF73
:104C3000387F002090B583B000AF03463960FB7128
:104C40003B685C68164B1B881846FFF72FFFF0EE99
:104C5000407AC4ED007AFB79002B14D13B685B6885
:104C60003A685268D2ED007A3A6812780D494C32AF
:104C700092000A44D2F8012007EE102A77EE877AD4
:104C8000C3ED007A08E0FB79032B05D1064BD3F87E
:104C90001831054AC2F8D43100BF0C37BD4690BD6B
:104CA000B02000202C810020387F002090B583B0F8
:104CB00000AF03463960FB713B689C68184B5B880A
:104CC000B2EE040A4FF470411846FFF709FEF0EE09
:104CD000407AC4ED007AFB79002B14D13B689B68C5
:104CE0003A689268D2ED007A3A6812780D493A3201
:104CF00092000A44D2F8012007EE102A77EE877A54
:104D0000C3ED007A08E0FB79032B05D1064BD3F8FD
:104D10001431054AC2F8D03100BF0C37BD4690BDF2
:104D2000B02000202C810020387F002090B585B075
:104D300000AF0346FB71FB791F3BFB73FC7B0E4B03
:104D40005A880D4B9B88DBB219461046FFF776FE5A
:104D5000F0EE407A094A04F152039B0013440433F5
:104D6000C3ED007AFB79064A002102F8231000BF48
:104D70001437BD4690BD00BFB0200020387F002012
:104D8000BC1F002090B585B000AF0346FB71FB79D6
:104D9000233BFB73FC7B0E4B5A880D4B9B88DBB28D
:104DA00019461046FFF74AFEF0EE407A094A04F130
:104DB00056039B0013440433C3ED007AFB79064A83
:104DC000002102F8231000BF1437BD4690BD00BF7C
:104DD000B0200020387F0020BC1F002080B584B0A8
:104DE00000AF03460A46FB711346BB710023FB73F9
:104DF000FB79002B18D1BB79FB73FB7B0F2B15D8EC
:104E0000FB7B0C4A9B001344D3ED007AFB7B094AE1
:104E100010339B00134493ED007AF0EE470AB0EE96
:104E2000670A05F09DFA02E000BF00E000BF1037FE
:104E3000BD4680BD387F002080B586B000AF0346F8
:104E40000A46FB711346BB7107F10C0300221A607E
:104E50005A609A6007F10C02B979FB791846FFF79E
:104E60006BFE0346002B29D0164B1A88BB79002114
:104E70001846FFF789FD0346002B06D007F10C0208
:104E8000FB7911461846FFF7D5FE0E4B5A88B879C4
:104E90004FF470430121FFF791FD0346002B06D02C
:104EA00007F10C02FB7911461846FFF7FFFEBA79AD
:104EB000FB7911461846FFF791FF00E000BF183755
:104EC000BD4680BDB020002080B584B000AF034651
:104ED0000A46FB711346BB71BB79173BFB730E4B44
:104EE0001A88BB7900211846FFF74EFD0346002BB8
:104EF00006D0FB7B084A1188084AB03322F8131009
:104F0000FB7B064AB03332F81330184605F05AFAE4
:104F100000BF1037BD4680BDB0200020387F002084
:104F200080B584B000AF03460A46FB711346BB71DF
:104F3000FB79052B15D1BB791F3BFB73BB79184659
:104F4000FFF7F4FEFB7B0C4A52339B0013440433FF
:104F5000D3ED007AFDEEE77A17EE900A05F04EFAEF
:104F600006E0FB79062B03D1BB791846FFF70AFF51
:104F700000BF1037BD4680BD387F002090B585B09A
:104F800000AF03460A46FB711346BB71BB79243B55
:104F9000FB730F4B1A88BB7900211846FFF7F4FC0E
:104FA0000346002B0FD0FC7B094B1B881846FFF7EC
:104FB00063FDF0EE407A074A04F146039B00134478
:104FC0000433C3ED007A00BF1437BD4690BD00BF67
:104FD000B0200020387F002080B584B000AF0346A9
:104FE0000A46FB711346BB71BB79303BFB730E4B1A
:104FF0001A88BB7900211846FFF7C6FC0346002B30
:1050000006D0FB7B084A1188084AB83322F81310EF
:10501000FB7B064AB83332F81330184605F008FA1D
:1050200000BF1037BD4680BDB0200020387F002073
:1050300080B584B000AF03460A46FB711346BB71CE
:10504000BB79343BFB731B4B1A88BB790021184694
:10505000FFF79AFC0346002B06D0FB7B154A11880C
:10506000154ABC3322F81310124B5A88BB79012120
:105070001846FFF789FC0346002B08D0FB7B0D4A3E
:1050800051880D4ABC335B0013440A46DA80FB7B2F
:10509000094ABC3332F81300FB7B074ABC335B0080
:1050A0001344DB88194605F0DFF900BF1037BD4611
:1050B00080BD00BFB0200020387F002080B582B0C6
:1050C00000AF03460A46FB711346BB712C4B1A888E
:1050D000B8794FF400430021FFF770FC0346002B22
:1050E00014D0274B1B889FED270A4FF40041184628
:1050F000FFF7F6FBF0EE407A234BD3F8793107EE59
:10510000103A77EE877A214BC3ED617A1C4B5A88AF
:10511000BB7901211846FFF737FC0346002B13D05B
:10512000174B5B8807EE903AB8EE677ADFED156AA9
:10513000C7EE267A144BD3F87D3107EE103A77EE9E
:10514000877A124BC3ED627A0D4B9A88BB790221A4
:105150001846FFF719FC0346002B0CD0084B9B8820
:1051600007EE903AB8EE677ADFED066AC7EE267A68
:10517000064BC3ED637A00BF0837BD4680BD00BF54
:10518000B02000200000C8422C810020387F002081
:1051900080B582B000AF03460A46FB711346BB716F
:1051A000164B1A88BB7900211846FFF7EDFB034622
:1051B000002B0CD0114B1B8807EE903AB8EE677AA3
:1051C000DFED0F6AC7EE267A0E4BC3ED647A0B4B08
:1051D0005A88BB7901211846FFF7D6FB0346002BFE
:1051E00008D0064B5B8807EE903AF8EE677A054BDD
:1051F000C3ED657A00BF0837BD4680BDB0200020F2
:105200000000C842387F002080B582B000AF03465E
:105210000A46FB711346BB71184B1A88BB790021F3
:105220001846FFF7B1FB0346002B04D0134B1A8836
:10523000134BA3F8A021114B5A88BB7901211846C2
:10524000FFF7A2FB0346002B04D00C4B5A880C4BF3
:10525000A3F8A221094B9A88BB7902211846FFF7CF
:1052600093FB0346002B04D0044B9A88044BA3F80D
:10527000A42100BF0837BD4680BD00BFB02000207C
:10528000387F002080B584B000AF03460A46FB712A
:105290001346BB71134B1A88124B5B881946104694
:1052A000FFF738FCF860FB68002B0CBF01230023DC
:1052B000DBB21A46BB7900211846FFF7D1FA034644
:1052C000002B0BD0FB6807EE903AB8EE677ADFED63
:1052D000066AC7EE267A054BC3ED667A00BF103723
:1052E000BD4680BDB02000200000C842387F0020AD
:1052F00080B582B000AF03460A46FB711346BB710E
:10530000144B9B88002B0CBF01230023DBB21A46F1
:10531000BB7900211846FFF7A3FA0346002B05D0FE
:105320000C4B9B881A460C4BC3F89C210A4B93F8F4
:10533000A8210A4B1B789A4207D0074B93F8A82163
:10534000064B1A70112029F0C3FB00BF0837BD4679
:1053500080BD00BFB0200020387F0020AC2000209E
:1053600080B582B000AF0023FB711AE00023BB714F
:1053700008E0BA79FB791146184603F041FCBB7985
:105380000133BB71FA79224913461B0113449B0078
:105390000B4425331B78BA799A42EAD3FB7901335F
:1053A000FB71FB790F2BE1D91A4B0022C3F8C42102
:1053B000184BD3F8C431174AC2F8C031154BD3F893
:1053C000C031144AC2F8BC31124BD3F8BC31114A77
:1053D000C2F8B8310F4BD3F8B8310E4AC2F8B43125
:1053E0000C4BD3F8B4310B4AC2F8B031094BD3F8A7
:1053F000B031DAB2074B83F8A821064B93F8A831F5
:105400001A46044BC3F8AC2100BF0837BD4680BD27
:1054100008000020387F002080B58CB000AF294BF9
:105420001B68002B0BD128483CF0D0FA27483CF0F1
:10543000CDFA27483CF0CAFA4FF0FF333EE0002394
:10544000FB6229E0234AFB6ACA3352F823307B60AF
:105450007B68002B1CDD07F108023B1D1146184636
:105460004BF0B6F83A69174B1B689B689A4210D10B
:1054700019483CF0ABFA134B1B689B68FA6A194653
:1054800016483CF0A3FA12483CF0A0FAFB6A15E07B
:1054900000BFFB6A0133FB62FB6A182BD2DD1048A8
:1054A0003CF094FA074B1B689B6819460D483CF08A
:1054B0008DFA07483CF08AFA4FF0FF331846303730
:1054C000BD4680BD288100202C920A0844920A081B
:1054D00058920A082C81002060920A0878920A08E3
:1054E0009C920A08B4920A0890B58DB002AF7A4B2C
:1054F0001B68002B0BD179483CF068FA784B1B688D
:10550000194678483CF062FA77483CF05FFA744BF1
:105510001B68002B1CD1704B1A68531C6E490B6022
:10552000724BA3FB02135B09642101FB03F3D31A43
:10553000002B40F0CB806E483CF048FA664B1B686D
:1055400019466C483CF042FA67483CF03FFABDE02F
:10555000634B1B689B68172B00F3BA80664B1B6874
:10556000002B14DA5E4B1B689B68634A1360634828
:105570003CF02CFA604B1968594B1B689B681A4623
:105580005F483CF023FA58483CF020FAA1E0524B27
:1055900019684B1C504A13605A4BA3FB01235A094C
:1055A00013461B019B1A9B00CA1A002A0FD15348AD
:1055B0003CF00CFA504B1968494B1B689A68464BF3
:1055C0001B6851483CF002FA47483CF0FFF9444B55
:1055D0001B689A68484B1B689A427AD0404B1B68FC
:1055E0009B68454A13603B1D194648484AF0F0FF46
:1055F000FA68414B1B689A420ED0602244494548E4
:105600003BF038FB6022444944483BF033FB6022C6
:10561000434944483BF02EFB434BD3F8C821434B4E
:10562000C3F8C02235483CF0D1F9334B1C683F4BDE
:10563000D3F8C0321846FBF7B5FA02460B462146AE
:105640003B483CF0C3F928483CF0C0F9364BD3F84E
:10565000CC21364BC3F8242328483CF0B7F9264B1D
:105660001C68324BD3F824331846FBF79BFA0246EA
:105670000B4621462F483CF0A9F91B483CF0A6F9FF
:1056800000204BF02DF90246284BC3F888233B1D20
:1056900019461E484AF09CFF18483CF097F9BB6930
:1056A00003F26C717B69581C3C69FB68BA68019213
:1056B00000932346024620483CF088F90A483CF013
:1056C00085F90B2108202BF08DFA02E000BF00E0E5
:1056D00000BF2C37BD4690BDB82000202C920A0890
:1056E00028810020D8920A0858920A081F85EB5199
:1056F0009C920A0804930A080400002060920A0899
:1057000030930A088988888860930A08B484002046
:10571000908300208C830020F4830020F0830020FD
:105720005884002054840020387F00202C810020E1
:1057300094930A08C4930A08F4930A0880B582B0C7
:1057400000AF04F0F1FD0346002B5ED1334B1B6824
:10575000002B5CD0314B1B689B68172B59DCFFF783
:105760005BFE78607B68002B02DB7B68182B01DD19
:1057700000237B602A4A7B6898339B0013441B6894
:10578000DFED287A07EE103AB4EE677AF1EE10FA00
:1057900015D0234A7B6898339B0013441B6807EE9F
:1057A000903AF5EE407AF1EE10FA08D01C4A7B6888
:1057B00098339B0013441B681B4AC2F8C831184A2F
:1057C0007B68B0339B0013445B68DFED167A07EE0D
:1057D000103AB4EE677AF1EE10FA1BD0104A7B68EB
:1057E000B0339B0013445B6807EE903AF5EE407AC5
:1057F000F1EE10FA0ED00A4A7B68B0339B001344D6
:105800005B68094AC2F8CC3104E000BF02E000BF87
:1058100000E000BF0837BD4680BD00BF28810020E2
:105820002C81002000FEFF46387F00202DE9B04388
:1058300094B004AF786039600023FB633A483CF0D1
:10584000C5F80023BB635FE0384ABB6BCA3352F82C
:105850002330BB60BB68002B4EDD07F10C0207F163
:105860000803114618464AF0B3FE304ABB6B983322
:105870009B0013441B687B632C4ABB6BB0339B00BB
:1058800013445B683B63D7ED0D7AF5EE407AF1EE99
:1058900010FA33D0D7ED0D7A9FED257AF4EE477AE2
:1058A000F1EE10FA2AD0D7ED0C7AF5EE407AF1EE4F
:1058B00010FA25D0D7ED0C7A9FED1D7AF4EE477AD9
:1058C000F1EE10FA1CD07D69786BFBF76BF980461E
:1058D0008946386BFBF766F903460C46BA680292B4
:1058E000CDE9003442464B46294612483CF06EF85A
:1058F000FB6B0133FB6304E000BF02E000BF00E08C
:1059000000BFBB6B0133BB63BB6B182B9CDDFB6B18
:10591000002B02D108483CF059F8002318464037C4
:10592000BD46BDE8B08300BF28940A082C81002042
:105930000000804F3C940A0864940A0880B584B043
:1059400000AF786039600023FB601CE0154AFB68FB
:10595000CA33002122F823109B00134400225A80EE
:10596000104AFB6898339B0013444FF000021A6002
:105970000C4AFB68B0339B0013444FF000025A609E
:10598000FB680133FB60FB68182BDFDD0B2108206F
:105990002BF028F904483CF019F80023184610377A
:1059A000BD4680BD2C81002070940A0880B582B06D
:1059B00000AF0346FB71FB79184628F0B3F80346A5
:1059C00018460837BD4680BD80B582B000AF78600C
:1059D0007B68012B04D10E4B012283F8E12003E008
:1059E0000B4B002283F8E120094B93F8E030184676
:1059F000FFF7DCFF0346012B06D1054B93F8E0309F
:105A00007968184628F0FAF800BF0837BD4680BD0F
:105A1000E484002080B500AF094B93F8B934002B23
:105A200004D1084B93F8E130002B06D00020FFF79B
:105A3000CBFF034B002283F8B92400BF80BD00BF19
:105A4000BC9A0020E484002080B592B000AF01F041
:105A5000C1FE87ED080A01F0AFFE87ED070A01F0ED
:105A600087F90346FB7601F0C9F987ED050A01F0D5
:105A7000D5F90346FB74002387F84730CF4B1B68EA
:105A80001B690133CE4A92F8BA249342C0F255837F
:105A9000CA4B1B681B690133C94A92F8BB24934265
:105AA00000F34B83C64B93F8BC341A46642303FBC4
:105AB00002F3C34A92F8BD241344FB60C04B93F831
:105AC000BE341A46642303FB02F3BD4A92F8BF2496
:105AD0001344BB60B94B1B689B68642202FB03F252
